{
  "_format": "hh-sol-artifact-1",
  "contractName": "DJKNAssetToken",
  "sourceName": "contracts/Asset.sol",
  "abi": [
    {
      "inputs": [
        {
          "internalType": "address",
          "name": "initialOwner",
          "type": "address"
        }
      ],
      "stateMutability": "nonpayable",
      "type": "constructor"
    },
    {
      "inputs": [],
      "name": "ERC721EnumerableForbiddenBatchMint",
      "type": "error"
    },
    {
      "inputs": [
        {
          "internalType": "address",
          "name": "sender",
          "type": "address"
        },
        {
          "internalType": "uint256",
          "name": "tokenId",
          "type": "uint256"
        },
        {
          "internalType": "address",
          "name": "owner",
          "type": "address"
        }
      ],
      "name": "ERC721IncorrectOwner",
      "type": "error"
    },
    {
      "inputs": [
        {
          "internalType": "address",
          "name": "operator",
          "type": "address"
        },
        {
          "internalType": "uint256",
          "name": "tokenId",
          "type": "uint256"
        }
      ],
      "name": "ERC721InsufficientApproval",
      "type": "error"
    },
    {
      "inputs": [
        {
          "internalType": "address",
          "name": "approver",
          "type": "address"
        }
      ],
      "name": "ERC721InvalidApprover",
      "type": "error"
    },
    {
      "inputs": [
        {
          "internalType": "address",
          "name": "operator",
          "type": "address"
        }
      ],
      "name": "ERC721InvalidOperator",
      "type": "error"
    },
    {
      "inputs": [
        {
          "internalType": "address",
          "name": "owner",
          "type": "address"
        }
      ],
      "name": "ERC721InvalidOwner",
      "type": "error"
    },
    {
      "inputs": [
        {
          "internalType": "address",
          "name": "receiver",
          "type": "address"
        }
      ],
      "name": "ERC721InvalidReceiver",
      "type": "error"
    },
    {
      "inputs": [
        {
          "internalType": "address",
          "name": "sender",
          "type": "address"
        }
      ],
      "name": "ERC721InvalidSender",
      "type": "error"
    },
    {
      "inputs": [
        {
          "internalType": "uint256",
          "name": "tokenId",
          "type": "uint256"
        }
      ],
      "name": "ERC721NonexistentToken",
      "type": "error"
    },
    {
      "inputs": [
        {
          "internalType": "address",
          "name": "owner",
          "type": "address"
        },
        {
          "internalType": "uint256",
          "name": "index",
          "type": "uint256"
        }
      ],
      "name": "ERC721OutOfBoundsIndex",
      "type": "error"
    },
    {
      "inputs": [
        {
          "internalType": "address",
          "name": "owner",
          "type": "address"
        }
      ],
      "name": "OwnableInvalidOwner",
      "type": "error"
    },
    {
      "inputs": [
        {
          "internalType": "address",
          "name": "account",
          "type": "address"
        }
      ],
      "name": "OwnableUnauthorizedAccount",
      "type": "error"
    },
    {
      "anonymous": false,
      "inputs": [
        {
          "indexed": true,
          "internalType": "address",
          "name": "owner",
          "type": "address"
        },
        {
          "indexed": true,
          "internalType": "address",
          "name": "approved",
          "type": "address"
        },
        {
          "indexed": true,
          "internalType": "uint256",
          "name": "tokenId",
          "type": "uint256"
        }
      ],
      "name": "Approval",
      "type": "event"
    },
    {
      "anonymous": false,
      "inputs": [
        {
          "indexed": true,
          "internalType": "address",
          "name": "owner",
          "type": "address"
        },
        {
          "indexed": true,
          "internalType": "address",
          "name": "operator",
          "type": "address"
        },
        {
          "indexed": false,
          "internalType": "bool",
          "name": "approved",
          "type": "bool"
        }
      ],
      "name": "ApprovalForAll",
      "type": "event"
    },
    {
      "anonymous": false,
      "inputs": [
        {
          "indexed": true,
          "internalType": "address",
          "name": "previousOwner",
          "type": "address"
        },
        {
          "indexed": true,
          "internalType": "address",
          "name": "newOwner",
          "type": "address"
        }
      ],
      "name": "OwnershipTransferred",
      "type": "event"
    },
    {
      "anonymous": false,
      "inputs": [
        {
          "indexed": true,
          "internalType": "uint256",
          "name": "tokenId",
          "type": "uint256"
        },
        {
          "indexed": true,
          "internalType": "address",
          "name": "previousOwner",
          "type": "address"
        },
        {
          "indexed": true,
          "internalType": "address",
          "name": "newOwner",
          "type": "address"
        }
      ],
      "name": "OwnershipTransferred",
      "type": "event"
    },
    {
      "anonymous": false,
      "inputs": [
        {
          "indexed": true,
          "internalType": "address",
          "name": "from",
          "type": "address"
        },
        {
          "indexed": true,
          "internalType": "address",
          "name": "to",
          "type": "address"
        },
        {
          "indexed": true,
          "internalType": "uint256",
          "name": "tokenId",
          "type": "uint256"
        }
      ],
      "name": "Transfer",
      "type": "event"
    },
    {
      "inputs": [
        {
          "internalType": "address",
          "name": "to",
          "type": "address"
        },
        {
          "internalType": "uint256",
          "name": "tokenId",
          "type": "uint256"
        }
      ],
      "name": "approve",
      "outputs": [],
      "stateMutability": "nonpayable",
      "type": "function"
    },
    {
      "inputs": [
        {
          "internalType": "uint256",
          "name": "",
          "type": "uint256"
        }
      ],
      "name": "assets",
      "outputs": [
        {
          "internalType": "string",
          "name": "itemName",
          "type": "string"
        },
        {
          "internalType": "string",
          "name": "location",
          "type": "string"
        },
        {
          "internalType": "address",
          "name": "owner",
          "type": "address"
        },
        {
          "internalType": "uint256",
          "name": "transferCount",
          "type": "uint256"
        },
        {
          "internalType": "uint256",
          "name": "acquisitionDate",
          "type": "uint256"
        },
        {
          "internalType": "uint256",
          "name": "estimatedValue",
          "type": "uint256"
        },
        {
          "internalType": "string",
          "name": "itemId",
          "type": "string"
        }
      ],
      "stateMutability": "view",
      "type": "function"
    },
    {
      "inputs": [
        {
          "internalType": "address",
          "name": "owner",
          "type": "address"
        }
      ],
      "name": "balanceOf",
      "outputs": [
        {
          "internalType": "uint256",
          "name": "",
          "type": "uint256"
        }
      ],
      "stateMutability": "view",
      "type": "function"
    },
    {
      "inputs": [],
      "name": "getAllItem",
      "outputs": [
        {
          "internalType": "string[]",
          "name": "",
          "type": "string[]"
        }
      ],
      "stateMutability": "view",
      "type": "function"
    },
    {
      "inputs": [
        {
          "internalType": "uint256",
          "name": "tokenId",
          "type": "uint256"
        }
      ],
      "name": "getApproved",
      "outputs": [
        {
          "internalType": "address",
          "name": "",
          "type": "address"
        }
      ],
      "stateMutability": "view",
      "type": "function"
    },
    {
      "inputs": [
        {
          "internalType": "address",
          "name": "owner",
          "type": "address"
        }
      ],
      "name": "getOwnedAsset",
      "outputs": [
        {
          "internalType": "string[]",
          "name": "",
          "type": "string[]"
        }
      ],
      "stateMutability": "view",
      "type": "function"
    },
    {
      "inputs": [
        {
          "internalType": "address",
          "name": "owner",
          "type": "address"
        },
        {
          "internalType": "uint256",
          "name": "index",
          "type": "uint256"
        }
      ],
      "name": "getOwnedAssetId",
      "outputs": [
        {
          "internalType": "uint256",
          "name": "",
          "type": "uint256"
        }
      ],
      "stateMutability": "view",
      "type": "function"
    },
    {
      "inputs": [
        {
          "internalType": "address",
          "name": "owner",
          "type": "address"
        }
      ],
      "name": "getOwnedAssetsCount",
      "outputs": [
        {
          "internalType": "uint256",
          "name": "",
          "type": "uint256"
        }
      ],
      "stateMutability": "view",
      "type": "function"
    },
    {
      "inputs": [
        {
          "internalType": "uint256",
          "name": "tokenId",
          "type": "uint256"
        }
      ],
      "name": "getTokenDetails",
      "outputs": [
        {
          "components": [
            {
              "internalType": "string",
              "name": "itemName",
              "type": "string"
            },
            {
              "internalType": "string",
              "name": "location",
              "type": "string"
            },
            {
              "internalType": "address",
              "name": "owner",
              "type": "address"
            },
            {
              "internalType": "uint256",
              "name": "transferCount",
              "type": "uint256"
            },
            {
              "internalType": "uint256",
              "name": "acquisitionDate",
              "type": "uint256"
            },
            {
              "internalType": "uint256",
              "name": "estimatedValue",
              "type": "uint256"
            },
            {
              "internalType": "string",
              "name": "itemId",
              "type": "string"
            }
          ],
          "internalType": "struct DJKNAssetToken.Asset",
          "name": "",
          "type": "tuple"
        }
      ],
      "stateMutability": "view",
      "type": "function"
    },
    {
      "inputs": [
        {
          "internalType": "address",
          "name": "owner",
          "type": "address"
        },
        {
          "internalType": "address",
          "name": "operator",
          "type": "address"
        }
      ],
      "name": "isApprovedForAll",
      "outputs": [
        {
          "internalType": "bool",
          "name": "",
          "type": "bool"
        }
      ],
      "stateMutability": "view",
      "type": "function"
    },
    {
      "inputs": [
        {
          "internalType": "address",
          "name": "to",
          "type": "address"
        },
        {
          "internalType": "string",
          "name": "itemName",
          "type": "string"
        },
        {
          "internalType": "string",
          "name": "location",
          "type": "string"
        },
        {
          "internalType": "uint256",
          "name": "acquisitionDate",
          "type": "uint256"
        },
        {
          "internalType": "uint256",
          "name": "estimatedValue",
          "type": "uint256"
        },
        {
          "internalType": "string",
          "name": "itemId",
          "type": "string"
        }
      ],
      "name": "mint",
      "outputs": [],
      "stateMutability": "nonpayable",
      "type": "function"
    },
    {
      "inputs": [],
      "name": "name",
      "outputs": [
        {
          "internalType": "string",
          "name": "",
          "type": "string"
        }
      ],
      "stateMutability": "view",
      "type": "function"
    },
    {
      "inputs": [],
      "name": "owner",
      "outputs": [
        {
          "internalType": "address",
          "name": "",
          "type": "address"
        }
      ],
      "stateMutability": "view",
      "type": "function"
    },
    {
      "inputs": [
        {
          "internalType": "uint256",
          "name": "tokenId",
          "type": "uint256"
        }
      ],
      "name": "ownerOf",
      "outputs": [
        {
          "internalType": "address",
          "name": "",
          "type": "address"
        }
      ],
      "stateMutability": "view",
      "type": "function"
    },
    {
      "inputs": [],
      "name": "renounceOwnership",
      "outputs": [],
      "stateMutability": "nonpayable",
      "type": "function"
    },
    {
      "inputs": [
        {
          "internalType": "address",
          "name": "from",
          "type": "address"
        },
        {
          "internalType": "address",
          "name": "to",
          "type": "address"
        },
        {
          "internalType": "uint256",
          "name": "tokenId",
          "type": "uint256"
        }
      ],
      "name": "safeTransferFrom",
      "outputs": [],
      "stateMutability": "nonpayable",
      "type": "function"
    },
    {
      "inputs": [
        {
          "internalType": "address",
          "name": "from",
          "type": "address"
        },
        {
          "internalType": "address",
          "name": "to",
          "type": "address"
        },
        {
          "internalType": "uint256",
          "name": "tokenId",
          "type": "uint256"
        },
        {
          "internalType": "bytes",
          "name": "data",
          "type": "bytes"
        }
      ],
      "name": "safeTransferFrom",
      "outputs": [],
      "stateMutability": "nonpayable",
      "type": "function"
    },
    {
      "inputs": [
        {
          "internalType": "address",
          "name": "operator",
          "type": "address"
        },
        {
          "internalType": "bool",
          "name": "approved",
          "type": "bool"
        }
      ],
      "name": "setApprovalForAll",
      "outputs": [],
      "stateMutability": "nonpayable",
      "type": "function"
    },
    {
      "inputs": [
        {
          "internalType": "bytes4",
          "name": "interfaceId",
          "type": "bytes4"
        }
      ],
      "name": "supportsInterface",
      "outputs": [
        {
          "internalType": "bool",
          "name": "",
          "type": "bool"
        }
      ],
      "stateMutability": "view",
      "type": "function"
    },
    {
      "inputs": [],
      "name": "symbol",
      "outputs": [
        {
          "internalType": "string",
          "name": "",
          "type": "string"
        }
      ],
      "stateMutability": "view",
      "type": "function"
    },
    {
      "inputs": [
        {
          "internalType": "uint256",
          "name": "index",
          "type": "uint256"
        }
      ],
      "name": "tokenByIndex",
      "outputs": [
        {
          "internalType": "uint256",
          "name": "",
          "type": "uint256"
        }
      ],
      "stateMutability": "view",
      "type": "function"
    },
    {
      "inputs": [
        {
          "internalType": "address",
          "name": "owner",
          "type": "address"
        },
        {
          "internalType": "uint256",
          "name": "index",
          "type": "uint256"
        }
      ],
      "name": "tokenOfOwnerByIndex",
      "outputs": [
        {
          "internalType": "uint256",
          "name": "",
          "type": "uint256"
        }
      ],
      "stateMutability": "view",
      "type": "function"
    },
    {
      "inputs": [
        {
          "internalType": "uint256",
          "name": "tokenId",
          "type": "uint256"
        }
      ],
      "name": "tokenURI",
      "outputs": [
        {
          "internalType": "string",
          "name": "",
          "type": "string"
        }
      ],
      "stateMutability": "view",
      "type": "function"
    },
    {
      "inputs": [],
      "name": "totalSupply",
      "outputs": [
        {
          "internalType": "uint256",
          "name": "",
          "type": "uint256"
        }
      ],
      "stateMutability": "view",
      "type": "function"
    },
    {
      "inputs": [
        {
          "internalType": "uint256",
          "name": "tokenId",
          "type": "uint256"
        },
        {
          "internalType": "address",
          "name": "newOwner",
          "type": "address"
        }
      ],
      "name": "transferAssetOwnership",
      "outputs": [],
      "stateMutability": "nonpayable",
      "type": "function"
    },
    {
      "inputs": [
        {
          "internalType": "address",
          "name": "from",
          "type": "address"
        },
        {
          "internalType": "address",
          "name": "to",
          "type": "address"
        },
        {
          "internalType": "uint256",
          "name": "tokenId",
          "type": "uint256"
        }
      ],
      "name": "transferFrom",
      "outputs": [],
      "stateMutability": "nonpayable",
      "type": "function"
    },
    {
      "inputs": [
        {
          "internalType": "address",
          "name": "newOwner",
          "type": "address"
        }
      ],
      "name": "transferOwnership",
      "outputs": [],
      "stateMutability": "nonpayable",
      "type": "function"
    }
  ],
  "bytecode": "0x60806040526001600b553480156200001657600080fd5b50604051620026d7380380620026d7833981016040819052620000399162000134565b806040518060400160405280600e81526020016d222525a720b9b9b2ba2a37b5b2b760911b8152506040518060400160405280600381526020016211d05560ea1b81525081600090816200008e91906200020d565b5060016200009d82826200020d565b5050506001600160a01b038116620000cf57604051631e4fbdf760e01b81526000600482015260240160405180910390fd5b620000da81620000e2565b5050620002d9565b600a80546001600160a01b038381166001600160a01b0319831681179093556040519116919082907f8be0079c531659141344cd1fd0a4f28419497f9722a3daafe3b4186f6b6457e090600090a35050565b6000602082840312156200014757600080fd5b81516001600160a01b03811681146200015f57600080fd5b9392505050565b634e487b7160e01b600052604160045260246000fd5b600181811c908216806200019157607f821691505b602082108103620001b257634e487b7160e01b600052602260045260246000fd5b50919050565b601f82111562000208576000816000526020600020601f850160051c81016020861015620001e35750805b601f850160051c820191505b818110156200020457828155600101620001ef565b5050505b505050565b81516001600160401b0381111562000229576200022962000166565b62000241816200023a84546200017c565b84620001b8565b602080601f831160018114620002795760008415620002605750858301515b600019600386901b1c1916600185901b17855562000204565b600085815260208120601f198616915b82811015620002aa5788860151825594840194600190910190840162000289565b5085821015620002c95787850151600019600388901b60f8161c191681555b5050505050600190811b01905550565b6123ee80620002e96000396000f3fe608060405234801561001057600080fd5b50600436106101a95760003560e01c806370a08231116100f9578063c1e0372811610097578063d852bc3a11610071578063d852bc3a146103be578063e3080094146103c6578063e985e9c5146103d9578063f2fde38b146103ec57600080fd5b8063c1e0372814610365578063c87b56dd14610385578063cf35bdd01461039857600080fd5b80638da5cb5b116100d35780638da5cb5b1461032657806395d89b4114610337578063a22cb4651461033f578063b88d4fde1461035257600080fd5b806370a08231146102e2578063715018a6146102f55780637d22b8f0146102fd57600080fd5b8063263f9aaa116101665780632f745c59116101405780632f745c591461029657806342842e0e146102a95780634f6ccce7146102bc5780636352211e146102cf57600080fd5b8063263f9aaa1461025057806326debcf3146102705780632dcf36a31461028357600080fd5b806301ffc9a7146101ae57806306fdde03146101d6578063081812fc146101eb578063095ea7b31461021657806318160ddd1461022b57806323b872dd1461023d575b600080fd5b6101c16101bc366004611c7b565b6103ff565b60405190151581526020015b60405180910390f35b6101de61042a565b6040516101cd9190611ce8565b6101fe6101f9366004611cfb565b6104bc565b6040516001600160a01b0390911681526020016101cd565b610229610224366004611d30565b6104e5565b005b6008545b6040519081526020016101cd565b61022961024b366004611d5a565b6104f4565b61026361025e366004611d96565b610584565b6040516101cd9190611db1565b61022961027e366004611ec1565b6106f0565b610229610291366004611f6c565b61081e565b61022f6102a4366004611d30565b610997565b6102296102b7366004611d5a565b6109fc565b61022f6102ca366004611cfb565b610a1c565b6101fe6102dd366004611cfb565b610a75565b61022f6102f0366004611d96565b610a80565b610229610ac8565b61022f61030b366004611d96565b6001600160a01b03166000908152600d602052604090205490565b600a546001600160a01b03166101fe565b6101de610adc565b61022961034d366004611f98565b610aeb565b610229610360366004611fd4565b610af6565b610378610373366004611cfb565b610b0d565b6040516101cd9190612050565b6101de610393366004611cfb565b610d60565b6103ab6103a6366004611cfb565b610dd5565b6040516101cd97969594939291906120e2565b610263610fb6565b61022f6103d4366004611d30565b6110de565b6101c16103e736600461214d565b611178565b6102296103fa366004611d96565b6111a6565b60006001600160e01b0319821663780e9d6360e01b14806104245750610424826111e4565b92915050565b60606000805461043990612177565b80601f016020809104026020016040519081016040528092919081815260200182805461046590612177565b80156104b25780601f10610487576101008083540402835291602001916104b2565b820191906000526020600020905b81548152906001019060200180831161049557829003601f168201915b5050505050905090565b60006104c782611234565b506000828152600460205260409020546001600160a01b0316610424565b6104f082823361126d565b5050565b6001600160a01b03821661052357604051633250574960e11b8152600060048201526024015b60405180910390fd5b600061053083833361127a565b9050836001600160a01b0316816001600160a01b03161461057e576040516364283d7b60e01b81526001600160a01b038086166004830152602482018490528216604482015260640161051a565b50505050565b6001600160a01b0381166000908152600d6020526040812080546060929067ffffffffffffffff8111156105ba576105ba611e15565b6040519080825280602002602001820160405280156105ed57816020015b60608152602001906001900390816105d85790505b50905060005b82548110156106e8576000838281548110610610576106106121b1565b906000526020600020015490506000600c6000838152602001908152602001600020905080600601805461064390612177565b80601f016020809104026020016040519081016040528092919081815260200182805461066f90612177565b80156106bc5780601f10610691576101008083540402835291602001916106bc565b820191906000526020600020905b81548152906001019060200180831161069f57829003601f168201915b50505050508484815181106106d3576106d36121b1565b602090810291909101015250506001016105f3565b509392505050565b6106f861134f565b61070486600b5461137c565b6040805160e08101825286815260208082018790526001600160a01b038916828401526000606083018190526080830187905260a0830186905260c08301859052600b548152600c90915291909120815181906107619082612217565b50602082015160018201906107769082612217565b5060408201516002820180546001600160a01b0319166001600160a01b03909216919091179055606082015160038201556080820151600482015560a0820151600582015560c082015160068201906107cf9082612217565b5050506001600160a01b0386166000908152600d602090815260408220600b8054825460018101845592855292842090910191909155805491610811836122ed565b9190505550505050505050565b61082782610a75565b6001600160a01b0316336001600160a01b0316146108915760405162461bcd60e51b815260206004820152602160248201527f4f6e6c79206f776e65722063616e207472616e73666572206f776e65727368696044820152600760fc1b606482015260840161051a565b6001600160a01b0381166108e75760405162461bcd60e51b815260206004820152601960248201527f496e76616c6964206e6577206f776e6572206164647265737300000000000000604482015260640161051a565b6000828152600c602052604081206002810180546001600160a01b0319166001600160a01b038516179055600301805491610921836122ed565b91905055506109313382846104f4565b61093b33836113e1565b6001600160a01b0381166000818152600d60209081526040808320805460018101825590845291832090910185905551339185917f16b85f49bf01212961345d3016c9a531894accf62eb7680f2045d79185cc0ec09190a45050565b60006109a283610a80565b82106109d35760405163295f44f760e21b81526001600160a01b03841660048201526024810183905260440161051a565b506001600160a01b03919091166000908152600660209081526040808320938352929052205490565b610a1783838360405180602001604052806000815250610af6565b505050565b6000610a2760085490565b8210610a505760405163295f44f760e21b8152600060048201526024810183905260440161051a565b60088281548110610a6357610a636121b1565b90600052602060002001549050919050565b600061042482611234565b60006001600160a01b038216610aac576040516322718ad960e21b81526000600482015260240161051a565b506001600160a01b031660009081526003602052604090205490565b610ad061134f565b610ada60006114a6565b565b60606001805461043990612177565b6104f03383836114f8565b610b018484846104f4565b61057e84848484611597565b610b566040518060e00160405280606081526020016060815260200160006001600160a01b03168152602001600081526020016000815260200160008152602001606081525090565b6000828152600c602052604090819020815160e08101909252805482908290610b7e90612177565b80601f0160208091040260200160405190810160405280929190818152602001828054610baa90612177565b8015610bf75780601f10610bcc57610100808354040283529160200191610bf7565b820191906000526020600020905b815481529060010190602001808311610bda57829003601f168201915b50505050508152602001600182018054610c1090612177565b80601f0160208091040260200160405190810160405280929190818152602001828054610c3c90612177565b8015610c895780601f10610c5e57610100808354040283529160200191610c89565b820191906000526020600020905b815481529060010190602001808311610c6c57829003601f168201915b505050918352505060028201546001600160a01b0316602082015260038201546040820152600482015460608201526005820154608082015260068201805460a090920191610cd790612177565b80601f0160208091040260200160405190810160405280929190818152602001828054610d0390612177565b8015610d505780601f10610d2557610100808354040283529160200191610d50565b820191906000526020600020905b815481529060010190602001808311610d3357829003601f168201915b5050505050815250509050919050565b6060610d6b82611234565b506000610d8360408051602081019091526000815290565b90506000815111610da35760405180602001604052806000815250610dce565b80610dad846116c0565b604051602001610dbe929190612306565b6040516020818303038152906040525b9392505050565b600c60205260009081526040902080548190610df090612177565b80601f0160208091040260200160405190810160405280929190818152602001828054610e1c90612177565b8015610e695780601f10610e3e57610100808354040283529160200191610e69565b820191906000526020600020905b815481529060010190602001808311610e4c57829003601f168201915b505050505090806001018054610e7e90612177565b80601f0160208091040260200160405190810160405280929190818152602001828054610eaa90612177565b8015610ef75780601f10610ecc57610100808354040283529160200191610ef7565b820191906000526020600020905b815481529060010190602001808311610eda57829003601f168201915b505050600284015460038501546004860154600587015460068801805497986001600160a01b03909516979396509194509291610f3390612177565b80601f0160208091040260200160405190810160405280929190818152602001828054610f5f90612177565b8015610fac5780601f10610f8157610100808354040283529160200191610fac565b820191906000526020600020905b815481529060010190602001808311610f8f57829003601f168201915b5050505050905087565b600b5460609060008167ffffffffffffffff811115610fd757610fd7611e15565b60405190808252806020026020018201604052801561100a57816020015b6060815260200190600190039081610ff55790505b50905060005b828110156110d7576000818152600c60205260409020600601805461103490612177565b80601f016020809104026020016040519081016040528092919081815260200182805461106090612177565b80156110ad5780601f10611082576101008083540402835291602001916110ad565b820191906000526020600020905b81548152906001019060200180831161109057829003601f168201915b50505050508282815181106110c4576110c46121b1565b6020908102919091010152600101611010565b5092915050565b6001600160a01b0382166000908152600d6020526040812054821061113b5760405162461bcd60e51b8152602060048201526013602482015272496e646578206f7574206f6620626f756e647360681b604482015260640161051a565b6001600160a01b0383166000908152600d60205260409020805483908110611165576111656121b1565b9060005260206000200154905092915050565b6001600160a01b03918216600090815260056020908152604080832093909416825291909152205460ff1690565b6111ae61134f565b6001600160a01b0381166111d857604051631e4fbdf760e01b81526000600482015260240161051a565b6111e1816114a6565b50565b60006001600160e01b031982166380ac58cd60e01b148061121557506001600160e01b03198216635b5e139f60e01b145b8061042457506301ffc9a760e01b6001600160e01b0319831614610424565b6000818152600260205260408120546001600160a01b03168061042457604051637e27328960e01b81526004810184905260240161051a565b610a178383836001611753565b600080611288858585611859565b90506001600160a01b0381166112e5576112e084600880546000838152600960205260408120829055600182018355919091527ff3f7a9fe364faab93b216da50a3214154f22a0a2b415b23a84c8169e8b636ee30155565b611308565b846001600160a01b0316816001600160a01b031614611308576113088185611952565b6001600160a01b0385166113245761131f846119e3565b611347565b846001600160a01b0316816001600160a01b031614611347576113478585611a76565b949350505050565b600a546001600160a01b03163314610ada5760405163118cdaa760e01b815233600482015260240161051a565b6001600160a01b0382166113a657604051633250574960e11b81526000600482015260240161051a565b60006113b48383600061127a565b90506001600160a01b03811615610a17576040516339e3563760e11b81526000600482015260240161051a565b6001600160a01b0382166000908152600d60205260408120905b815481101561057e5782828281548110611417576114176121b1565b90600052602060002001540361149e578154829061143790600190612335565b81548110611447576114476121b1565b9060005260206000200154828281548110611464576114646121b1565b90600052602060002001819055508180548061148257611482612348565b6001900381819060005260206000200160009055905550505050565b6001016113fb565b600a80546001600160a01b038381166001600160a01b0319831681179093556040519116919082907f8be0079c531659141344cd1fd0a4f28419497f9722a3daafe3b4186f6b6457e090600090a35050565b6001600160a01b03821661152a57604051630b61174360e31b81526001600160a01b038316600482015260240161051a565b6001600160a01b03838116600081815260056020908152604080832094871680845294825291829020805460ff191686151590811790915591519182527f17307eab39ab6107e8899845ad3d59bd9653f200f220920489ca2b5937696c31910160405180910390a3505050565b6001600160a01b0383163b1561057e57604051630a85bd0160e11b81526001600160a01b0384169063150b7a02906115d990339088908790879060040161235e565b6020604051808303816000875af1925050508015611614575060408051601f3d908101601f191682019092526116119181019061239b565b60015b61167d573d808015611642576040519150601f19603f3d011682016040523d82523d6000602084013e611647565b606091505b50805160000361167557604051633250574960e11b81526001600160a01b038516600482015260240161051a565b805181602001fd5b6001600160e01b03198116630a85bd0160e11b146116b957604051633250574960e11b81526001600160a01b038516600482015260240161051a565b5050505050565b606060006116cd83611ac6565b600101905060008167ffffffffffffffff8111156116ed576116ed611e15565b6040519080825280601f01601f191660200182016040528015611717576020820181803683370190505b5090508181016020015b600019016f181899199a1a9b1b9c1cb0b131b232b360811b600a86061a8153600a850494508461172157509392505050565b808061176757506001600160a01b03821615155b1561182957600061177784611234565b90506001600160a01b038316158015906117a35750826001600160a01b0316816001600160a01b031614155b80156117b657506117b48184611178565b155b156117df5760405163a9fbf51f60e01b81526001600160a01b038416600482015260240161051a565b81156118275783856001600160a01b0316826001600160a01b03167f8c5be1e5ebec7d5bd14f71427d1e84f3dd0314c0f7b2291e5b200ac8c7c3b92560405160405180910390a45b505b5050600090815260046020526040902080546001600160a01b0319166001600160a01b0392909216919091179055565b6000828152600260205260408120546001600160a01b039081169083161561188657611886818486611b9e565b6001600160a01b038116156118c4576118a3600085600080611753565b6001600160a01b038116600090815260036020526040902080546000190190555b6001600160a01b038516156118f3576001600160a01b0385166000908152600360205260409020805460010190555b60008481526002602052604080822080546001600160a01b0319166001600160a01b0389811691821790925591518793918516917fddf252ad1be2c89b69c2b068fc378daa952ba7f163c4a11628f55a4df523b3ef91a4949350505050565b600061195d83610a80565b6000838152600760205260409020549091508082146119b0576001600160a01b03841660009081526006602090815260408083208584528252808320548484528184208190558352600790915290208190555b5060009182526007602090815260408084208490556001600160a01b039094168352600681528383209183525290812055565b6008546000906119f590600190612335565b60008381526009602052604081205460088054939450909284908110611a1d57611a1d6121b1565b906000526020600020015490508060088381548110611a3e57611a3e6121b1565b600091825260208083209091019290925582815260099091526040808220849055858252812055600880548061148257611482612348565b60006001611a8384610a80565b611a8d9190612335565b6001600160a01b039093166000908152600660209081526040808320868452825280832085905593825260079052919091209190915550565b60008072184f03e93ff9f4daa797ed6e38ed64bf6a1f0160401b8310611b055772184f03e93ff9f4daa797ed6e38ed64bf6a1f0160401b830492506040015b6d04ee2d6d415b85acef81000000008310611b31576d04ee2d6d415b85acef8100000000830492506020015b662386f26fc100008310611b4f57662386f26fc10000830492506010015b6305f5e1008310611b67576305f5e100830492506008015b6127108310611b7b57612710830492506004015b60648310611b8d576064830492506002015b600a83106104245760010192915050565b611ba9838383611c02565b610a17576001600160a01b038316611bd757604051637e27328960e01b81526004810182905260240161051a565b60405163177e802f60e01b81526001600160a01b03831660048201526024810182905260440161051a565b60006001600160a01b038316158015906113475750826001600160a01b0316846001600160a01b03161480611c3c5750611c3c8484611178565b806113475750506000908152600460205260409020546001600160a01b03908116911614919050565b6001600160e01b0319811681146111e157600080fd5b600060208284031215611c8d57600080fd5b8135610dce81611c65565b60005b83811015611cb3578181015183820152602001611c9b565b50506000910152565b60008151808452611cd4816020860160208601611c98565b601f01601f19169290920160200192915050565b602081526000610dce6020830184611cbc565b600060208284031215611d0d57600080fd5b5035919050565b80356001600160a01b0381168114611d2b57600080fd5b919050565b60008060408385031215611d4357600080fd5b611d4c83611d14565b946020939093013593505050565b600080600060608486031215611d6f57600080fd5b611d7884611d14565b9250611d8660208501611d14565b9150604084013590509250925092565b600060208284031215611da857600080fd5b610dce82611d14565b600060208083016020845280855180835260408601915060408160051b87010192506020870160005b82811015611e0857603f19888603018452611df6858351611cbc565b94509285019290850190600101611dda565b5092979650505050505050565b634e487b7160e01b600052604160045260246000fd5b600067ffffffffffffffff80841115611e4657611e46611e15565b604051601f8501601f19908116603f01168101908282118183101715611e6e57611e6e611e15565b81604052809350858152868686011115611e8757600080fd5b858560208301376000602087830101525050509392505050565b600082601f830112611eb257600080fd5b610dce83833560208501611e2b565b60008060008060008060c08789031215611eda57600080fd5b611ee387611d14565b9550602087013567ffffffffffffffff80821115611f0057600080fd5b611f0c8a838b01611ea1565b96506040890135915080821115611f2257600080fd5b611f2e8a838b01611ea1565b9550606089013594506080890135935060a0890135915080821115611f5257600080fd5b50611f5f89828a01611ea1565b9150509295509295509295565b60008060408385031215611f7f57600080fd5b82359150611f8f60208401611d14565b90509250929050565b60008060408385031215611fab57600080fd5b611fb483611d14565b915060208301358015158114611fc957600080fd5b809150509250929050565b60008060008060808587031215611fea57600080fd5b611ff385611d14565b935061200160208601611d14565b925060408501359150606085013567ffffffffffffffff81111561202457600080fd5b8501601f8101871361203557600080fd5b61204487823560208401611e2b565b91505092959194509250565b602081526000825160e0602084015261206d610100840182611cbc565b90506020840151601f198085840301604086015261208b8383611cbc565b925060018060a01b03604087015116606086015260608601516080860152608086015160a086015260a086015160c086015260c08601519150808584030160e0860152506120d98282611cbc565b95945050505050565b60e0815260006120f560e083018a611cbc565b8281036020840152612107818a611cbc565b6001600160a01b0389166040850152606084018890526080840187905260a0840186905283810360c0850152905061213f8185611cbc565b9a9950505050505050505050565b6000806040838503121561216057600080fd5b61216983611d14565b9150611f8f60208401611d14565b600181811c9082168061218b57607f821691505b6020821081036121ab57634e487b7160e01b600052602260045260246000fd5b50919050565b634e487b7160e01b600052603260045260246000fd5b601f821115610a17576000816000526020600020601f850160051c810160208610156121f05750805b601f850160051c820191505b8181101561220f578281556001016121fc565b505050505050565b815167ffffffffffffffff81111561223157612231611e15565b6122458161223f8454612177565b846121c7565b602080601f83116001811461227a57600084156122625750858301515b600019600386901b1c1916600185901b17855561220f565b600085815260208120601f198616915b828110156122a95788860151825594840194600190910190840161228a565b50858210156122c75787850151600019600388901b60f8161c191681555b5050505050600190811b01905550565b634e487b7160e01b600052601160045260246000fd5b6000600182016122ff576122ff6122d7565b5060010190565b60008351612318818460208801611c98565b83519083019061232c818360208801611c98565b01949350505050565b81810381811115610424576104246122d7565b634e487b7160e01b600052603160045260246000fd5b6001600160a01b038581168252841660208201526040810183905260806060820181905260009061239190830184611cbc565b9695505050505050565b6000602082840312156123ad57600080fd5b8151610dce81611c6556fea26469706673582212207ba1c7915009ab5e57b1f790262494639e95aefc7a092ac895ea5e9d78bcdb7864736f6c63430008170033",
  "linkReferences": {},
  "deployedLinkReferences": {}
}