{
  "_format": "hh-sol-artifact-1",
  "contractName": "DJKNAssetToken",
  "sourceName": "contracts/Asset.sol",
  "abi": [
    {
      "inputs": [
        {
          "internalType": "address",
          "name": "initialOwner",
          "type": "address"
        }
      ],
      "stateMutability": "nonpayable",
      "type": "constructor"
    },
    {
      "inputs": [],
      "name": "ERC721EnumerableForbiddenBatchMint",
      "type": "error"
    },
    {
      "inputs": [
        {
          "internalType": "address",
          "name": "sender",
          "type": "address"
        },
        {
          "internalType": "uint256",
          "name": "tokenId",
          "type": "uint256"
        },
        {
          "internalType": "address",
          "name": "owner",
          "type": "address"
        }
      ],
      "name": "ERC721IncorrectOwner",
      "type": "error"
    },
    {
      "inputs": [
        {
          "internalType": "address",
          "name": "operator",
          "type": "address"
        },
        {
          "internalType": "uint256",
          "name": "tokenId",
          "type": "uint256"
        }
      ],
      "name": "ERC721InsufficientApproval",
      "type": "error"
    },
    {
      "inputs": [
        {
          "internalType": "address",
          "name": "approver",
          "type": "address"
        }
      ],
      "name": "ERC721InvalidApprover",
      "type": "error"
    },
    {
      "inputs": [
        {
          "internalType": "address",
          "name": "operator",
          "type": "address"
        }
      ],
      "name": "ERC721InvalidOperator",
      "type": "error"
    },
    {
      "inputs": [
        {
          "internalType": "address",
          "name": "owner",
          "type": "address"
        }
      ],
      "name": "ERC721InvalidOwner",
      "type": "error"
    },
    {
      "inputs": [
        {
          "internalType": "address",
          "name": "receiver",
          "type": "address"
        }
      ],
      "name": "ERC721InvalidReceiver",
      "type": "error"
    },
    {
      "inputs": [
        {
          "internalType": "address",
          "name": "sender",
          "type": "address"
        }
      ],
      "name": "ERC721InvalidSender",
      "type": "error"
    },
    {
      "inputs": [
        {
          "internalType": "uint256",
          "name": "tokenId",
          "type": "uint256"
        }
      ],
      "name": "ERC721NonexistentToken",
      "type": "error"
    },
    {
      "inputs": [
        {
          "internalType": "address",
          "name": "owner",
          "type": "address"
        },
        {
          "internalType": "uint256",
          "name": "index",
          "type": "uint256"
        }
      ],
      "name": "ERC721OutOfBoundsIndex",
      "type": "error"
    },
    {
      "inputs": [
        {
          "internalType": "address",
          "name": "owner",
          "type": "address"
        }
      ],
      "name": "OwnableInvalidOwner",
      "type": "error"
    },
    {
      "inputs": [
        {
          "internalType": "address",
          "name": "account",
          "type": "address"
        }
      ],
      "name": "OwnableUnauthorizedAccount",
      "type": "error"
    },
    {
      "anonymous": false,
      "inputs": [
        {
          "indexed": true,
          "internalType": "address",
          "name": "owner",
          "type": "address"
        },
        {
          "indexed": true,
          "internalType": "address",
          "name": "approved",
          "type": "address"
        },
        {
          "indexed": true,
          "internalType": "uint256",
          "name": "tokenId",
          "type": "uint256"
        }
      ],
      "name": "Approval",
      "type": "event"
    },
    {
      "anonymous": false,
      "inputs": [
        {
          "indexed": true,
          "internalType": "address",
          "name": "owner",
          "type": "address"
        },
        {
          "indexed": true,
          "internalType": "address",
          "name": "operator",
          "type": "address"
        },
        {
          "indexed": false,
          "internalType": "bool",
          "name": "approved",
          "type": "bool"
        }
      ],
      "name": "ApprovalForAll",
      "type": "event"
    },
    {
      "anonymous": false,
      "inputs": [
        {
          "indexed": true,
          "internalType": "address",
          "name": "previousOwner",
          "type": "address"
        },
        {
          "indexed": true,
          "internalType": "address",
          "name": "newOwner",
          "type": "address"
        }
      ],
      "name": "OwnershipTransferred",
      "type": "event"
    },
    {
      "anonymous": false,
      "inputs": [
        {
          "indexed": true,
          "internalType": "uint256",
          "name": "tokenId",
          "type": "uint256"
        },
        {
          "indexed": true,
          "internalType": "address",
          "name": "previousOwner",
          "type": "address"
        },
        {
          "indexed": true,
          "internalType": "address",
          "name": "newOwner",
          "type": "address"
        }
      ],
      "name": "OwnershipTransferred",
      "type": "event"
    },
    {
      "anonymous": false,
      "inputs": [
        {
          "indexed": true,
          "internalType": "address",
          "name": "from",
          "type": "address"
        },
        {
          "indexed": true,
          "internalType": "address",
          "name": "to",
          "type": "address"
        },
        {
          "indexed": true,
          "internalType": "uint256",
          "name": "tokenId",
          "type": "uint256"
        }
      ],
      "name": "Transfer",
      "type": "event"
    },
    {
      "inputs": [
        {
          "internalType": "address",
          "name": "to",
          "type": "address"
        },
        {
          "internalType": "uint256",
          "name": "tokenId",
          "type": "uint256"
        }
      ],
      "name": "approve",
      "outputs": [],
      "stateMutability": "nonpayable",
      "type": "function"
    },
    {
      "inputs": [
        {
          "internalType": "uint256",
          "name": "",
          "type": "uint256"
        }
      ],
      "name": "assets",
      "outputs": [
        {
          "internalType": "string",
          "name": "itemName",
          "type": "string"
        },
        {
          "internalType": "string",
          "name": "location",
          "type": "string"
        },
        {
          "internalType": "address",
          "name": "owner",
          "type": "address"
        },
        {
          "internalType": "uint256",
          "name": "transferCount",
          "type": "uint256"
        },
        {
          "internalType": "uint256",
          "name": "acquisitionDate",
          "type": "uint256"
        },
        {
          "internalType": "uint256",
          "name": "estimatedValue",
          "type": "uint256"
        },
        {
          "internalType": "string",
          "name": "itemId",
          "type": "string"
        }
      ],
      "stateMutability": "view",
      "type": "function"
    },
    {
      "inputs": [
        {
          "internalType": "address",
          "name": "owner",
          "type": "address"
        }
      ],
      "name": "balanceOf",
      "outputs": [
        {
          "internalType": "uint256",
          "name": "",
          "type": "uint256"
        }
      ],
      "stateMutability": "view",
      "type": "function"
    },
    {
      "inputs": [],
      "name": "getAllItems",
      "outputs": [
        {
          "internalType": "string[]",
          "name": "",
          "type": "string[]"
        }
      ],
      "stateMutability": "view",
      "type": "function"
    },
    {
      "inputs": [
        {
          "internalType": "uint256",
          "name": "tokenId",
          "type": "uint256"
        }
      ],
      "name": "getApproved",
      "outputs": [
        {
          "internalType": "address",
          "name": "",
          "type": "address"
        }
      ],
      "stateMutability": "view",
      "type": "function"
    },
    {
      "inputs": [
        {
          "internalType": "address",
          "name": "owner",
          "type": "address"
        },
        {
          "internalType": "uint256",
          "name": "index",
          "type": "uint256"
        }
      ],
      "name": "getOwnedAssetId",
      "outputs": [
        {
          "internalType": "uint256",
          "name": "",
          "type": "uint256"
        }
      ],
      "stateMutability": "view",
      "type": "function"
    },
    {
      "inputs": [
        {
          "internalType": "address",
          "name": "owner",
          "type": "address"
        }
      ],
      "name": "getOwnedAssets",
      "outputs": [
        {
          "components": [
            {
              "internalType": "string",
              "name": "itemName",
              "type": "string"
            },
            {
              "internalType": "string",
              "name": "location",
              "type": "string"
            },
            {
              "internalType": "address",
              "name": "owner",
              "type": "address"
            },
            {
              "internalType": "uint256",
              "name": "transferCount",
              "type": "uint256"
            },
            {
              "internalType": "uint256",
              "name": "acquisitionDate",
              "type": "uint256"
            },
            {
              "internalType": "uint256",
              "name": "estimatedValue",
              "type": "uint256"
            },
            {
              "internalType": "string",
              "name": "itemId",
              "type": "string"
            }
          ],
          "internalType": "struct DJKNAssetToken.Asset[]",
          "name": "",
          "type": "tuple[]"
        }
      ],
      "stateMutability": "view",
      "type": "function"
    },
    {
      "inputs": [
        {
          "internalType": "address",
          "name": "owner",
          "type": "address"
        }
      ],
      "name": "getOwnedAssetsCount",
      "outputs": [
        {
          "internalType": "uint256",
          "name": "",
          "type": "uint256"
        }
      ],
      "stateMutability": "view",
      "type": "function"
    },
    {
      "inputs": [
        {
          "internalType": "uint256",
          "name": "tokenId",
          "type": "uint256"
        }
      ],
      "name": "getTokenDetails",
      "outputs": [
        {
          "components": [
            {
              "internalType": "string",
              "name": "itemName",
              "type": "string"
            },
            {
              "internalType": "string",
              "name": "location",
              "type": "string"
            },
            {
              "internalType": "address",
              "name": "owner",
              "type": "address"
            },
            {
              "internalType": "uint256",
              "name": "transferCount",
              "type": "uint256"
            },
            {
              "internalType": "uint256",
              "name": "acquisitionDate",
              "type": "uint256"
            },
            {
              "internalType": "uint256",
              "name": "estimatedValue",
              "type": "uint256"
            },
            {
              "internalType": "string",
              "name": "itemId",
              "type": "string"
            }
          ],
          "internalType": "struct DJKNAssetToken.Asset",
          "name": "",
          "type": "tuple"
        }
      ],
      "stateMutability": "view",
      "type": "function"
    },
    {
      "inputs": [
        {
          "internalType": "address",
          "name": "owner",
          "type": "address"
        },
        {
          "internalType": "address",
          "name": "operator",
          "type": "address"
        }
      ],
      "name": "isApprovedForAll",
      "outputs": [
        {
          "internalType": "bool",
          "name": "",
          "type": "bool"
        }
      ],
      "stateMutability": "view",
      "type": "function"
    },
    {
      "inputs": [
        {
          "internalType": "address",
          "name": "to",
          "type": "address"
        },
        {
          "internalType": "string",
          "name": "itemName",
          "type": "string"
        },
        {
          "internalType": "string",
          "name": "location",
          "type": "string"
        },
        {
          "internalType": "uint256",
          "name": "acquisitionDate",
          "type": "uint256"
        },
        {
          "internalType": "uint256",
          "name": "estimatedValue",
          "type": "uint256"
        },
        {
          "internalType": "string",
          "name": "itemId",
          "type": "string"
        }
      ],
      "name": "mint",
      "outputs": [],
      "stateMutability": "nonpayable",
      "type": "function"
    },
    {
      "inputs": [],
      "name": "name",
      "outputs": [
        {
          "internalType": "string",
          "name": "",
          "type": "string"
        }
      ],
      "stateMutability": "view",
      "type": "function"
    },
    {
      "inputs": [],
      "name": "owner",
      "outputs": [
        {
          "internalType": "address",
          "name": "",
          "type": "address"
        }
      ],
      "stateMutability": "view",
      "type": "function"
    },
    {
      "inputs": [
        {
          "internalType": "uint256",
          "name": "tokenId",
          "type": "uint256"
        }
      ],
      "name": "ownerOf",
      "outputs": [
        {
          "internalType": "address",
          "name": "",
          "type": "address"
        }
      ],
      "stateMutability": "view",
      "type": "function"
    },
    {
      "inputs": [],
      "name": "renounceOwnership",
      "outputs": [],
      "stateMutability": "nonpayable",
      "type": "function"
    },
    {
      "inputs": [
        {
          "internalType": "address",
          "name": "from",
          "type": "address"
        },
        {
          "internalType": "address",
          "name": "to",
          "type": "address"
        },
        {
          "internalType": "uint256",
          "name": "tokenId",
          "type": "uint256"
        }
      ],
      "name": "safeTransferFrom",
      "outputs": [],
      "stateMutability": "nonpayable",
      "type": "function"
    },
    {
      "inputs": [
        {
          "internalType": "address",
          "name": "from",
          "type": "address"
        },
        {
          "internalType": "address",
          "name": "to",
          "type": "address"
        },
        {
          "internalType": "uint256",
          "name": "tokenId",
          "type": "uint256"
        },
        {
          "internalType": "bytes",
          "name": "data",
          "type": "bytes"
        }
      ],
      "name": "safeTransferFrom",
      "outputs": [],
      "stateMutability": "nonpayable",
      "type": "function"
    },
    {
      "inputs": [
        {
          "internalType": "address",
          "name": "operator",
          "type": "address"
        },
        {
          "internalType": "bool",
          "name": "approved",
          "type": "bool"
        }
      ],
      "name": "setApprovalForAll",
      "outputs": [],
      "stateMutability": "nonpayable",
      "type": "function"
    },
    {
      "inputs": [
        {
          "internalType": "bytes4",
          "name": "interfaceId",
          "type": "bytes4"
        }
      ],
      "name": "supportsInterface",
      "outputs": [
        {
          "internalType": "bool",
          "name": "",
          "type": "bool"
        }
      ],
      "stateMutability": "view",
      "type": "function"
    },
    {
      "inputs": [],
      "name": "symbol",
      "outputs": [
        {
          "internalType": "string",
          "name": "",
          "type": "string"
        }
      ],
      "stateMutability": "view",
      "type": "function"
    },
    {
      "inputs": [
        {
          "internalType": "uint256",
          "name": "index",
          "type": "uint256"
        }
      ],
      "name": "tokenByIndex",
      "outputs": [
        {
          "internalType": "uint256",
          "name": "",
          "type": "uint256"
        }
      ],
      "stateMutability": "view",
      "type": "function"
    },
    {
      "inputs": [
        {
          "internalType": "address",
          "name": "owner",
          "type": "address"
        },
        {
          "internalType": "uint256",
          "name": "index",
          "type": "uint256"
        }
      ],
      "name": "tokenOfOwnerByIndex",
      "outputs": [
        {
          "internalType": "uint256",
          "name": "",
          "type": "uint256"
        }
      ],
      "stateMutability": "view",
      "type": "function"
    },
    {
      "inputs": [
        {
          "internalType": "uint256",
          "name": "tokenId",
          "type": "uint256"
        }
      ],
      "name": "tokenURI",
      "outputs": [
        {
          "internalType": "string",
          "name": "",
          "type": "string"
        }
      ],
      "stateMutability": "view",
      "type": "function"
    },
    {
      "inputs": [],
      "name": "totalSupply",
      "outputs": [
        {
          "internalType": "uint256",
          "name": "",
          "type": "uint256"
        }
      ],
      "stateMutability": "view",
      "type": "function"
    },
    {
      "inputs": [
        {
          "internalType": "string",
          "name": "itemId",
          "type": "string"
        },
        {
          "internalType": "address",
          "name": "newOwner",
          "type": "address"
        }
      ],
      "name": "transferAssetOwnership",
      "outputs": [],
      "stateMutability": "nonpayable",
      "type": "function"
    },
    {
      "inputs": [
        {
          "internalType": "address",
          "name": "from",
          "type": "address"
        },
        {
          "internalType": "address",
          "name": "to",
          "type": "address"
        },
        {
          "internalType": "uint256",
          "name": "tokenId",
          "type": "uint256"
        }
      ],
      "name": "transferFrom",
      "outputs": [],
      "stateMutability": "nonpayable",
      "type": "function"
    },
    {
      "inputs": [
        {
          "internalType": "address",
          "name": "newOwner",
          "type": "address"
        }
      ],
      "name": "transferOwnership",
      "outputs": [],
      "stateMutability": "nonpayable",
      "type": "function"
    }
  ],
  "bytecode": "0x60806040526001600b553480156200001657600080fd5b50604051620029f0380380620029f0833981016040819052620000399162000134565b806040518060400160405280600e81526020016d222525a720b9b9b2ba2a37b5b2b760911b8152506040518060400160405280600381526020016211d05560ea1b81525081600090816200008e91906200020d565b5060016200009d82826200020d565b5050506001600160a01b038116620000cf57604051631e4fbdf760e01b81526000600482015260240160405180910390fd5b620000da81620000e2565b5050620002d9565b600a80546001600160a01b038381166001600160a01b0319831681179093556040519116919082907f8be0079c531659141344cd1fd0a4f28419497f9722a3daafe3b4186f6b6457e090600090a35050565b6000602082840312156200014757600080fd5b81516001600160a01b03811681146200015f57600080fd5b9392505050565b634e487b7160e01b600052604160045260246000fd5b600181811c908216806200019157607f821691505b602082108103620001b257634e487b7160e01b600052602260045260246000fd5b50919050565b601f82111562000208576000816000526020600020601f850160051c81016020861015620001e35750805b601f850160051c820191505b818110156200020457828155600101620001ef565b5050505b505050565b81516001600160401b0381111562000229576200022962000166565b62000241816200023a84546200017c565b84620001b8565b602080601f831160018114620002795760008415620002605750858301515b600019600386901b1c1916600185901b17855562000204565b600085815260208120601f198616915b82811015620002aa5788860151825594840194600190910190840162000289565b5085821015620002c95787850151600019600388901b60f8161c191681555b5050505050600190811b01905550565b61270780620002e96000396000f3fe608060405234801561001057600080fd5b50600436106101a95760003560e01c80636352211e116100f9578063b88d4fde11610097578063cf35bdd011610071578063cf35bdd0146103ad578063e3080094146103d3578063e985e9c5146103e6578063f2fde38b146103f957600080fd5b8063b88d4fde14610367578063c1e037281461037a578063c87b56dd1461039a57600080fd5b80637d22b8f0116100d35780637d22b8f0146103125780638da5cb5b1461033b57806395d89b411461034c578063a22cb4651461035457600080fd5b80636352211e146102e457806370a08231146102f7578063715018a61461030a57600080fd5b806323b872dd1161016657806342842e0e1161014057806342842e0e146102895780634ba1d6aa1461029c5780634f6ccce7146102b15780636213e981146102c457600080fd5b806323b872dd1461025057806326debcf3146102635780632f745c591461027657600080fd5b806301ffc9a7146101ae57806306fdde03146101d6578063081812fc146101eb578063095ea7b31461021657806318160ddd1461022b5780632203f8f11461023d575b600080fd5b6101c16101bc366004611ea3565b61040c565b60405190151581526020015b60405180910390f35b6101de610437565b6040516101cd9190611f10565b6101fe6101f9366004611f23565b6104c9565b6040516001600160a01b0390911681526020016101cd565b610229610224366004611f58565b6104f2565b005b6008545b6040519081526020016101cd565b61022961024b36600461202e565b610501565b61022961025e36600461207c565b61068d565b6102296102713660046120b8565b610718565b61022f610284366004611f58565b610846565b61022961029736600461207c565b6108ab565b6102a46108cb565b6040516101cd9190612163565b61022f6102bf366004611f23565b6109f3565b6102d76102d23660046121c7565b610a4c565b6040516101cd9190612263565b6101fe6102f2366004611f23565b610d22565b61022f6103053660046121c7565b610d2d565b610229610d75565b61022f6103203660046121c7565b6001600160a01b03166000908152600d602052604090205490565b600a546001600160a01b03166101fe565b6101de610d89565b6102296103623660046122ba565b610d98565b6102296103753660046122f6565b610da3565b61038d610388366004611f23565b610dba565b6040516101cd9190612372565b6101de6103a8366004611f23565b610fcc565b6103c06103bb366004611f23565b611041565b6040516101cd9796959493929190612385565b61022f6103e1366004611f58565b611222565b6101c16103f43660046123f0565b6112bc565b6102296104073660046121c7565b6112ea565b60006001600160e01b0319821663780e9d6360e01b1480610431575061043182611328565b92915050565b6060600080546104469061241a565b80601f01602080910402602001604051908101604052809291908181526020018280546104729061241a565b80156104bf5780601f10610494576101008083540402835291602001916104bf565b820191906000526020600020905b8154815290600101906020018083116104a257829003601f168201915b5050505050905090565b60006104d482611378565b506000828152600460205260409020546001600160a01b0316610431565b6104fd8282336113b1565b5050565b6001600160a01b03811661055c5760405162461bcd60e51b815260206004820152601960248201527f496e76616c6964206e6577206f776e657220616464726573730000000000000060448201526064015b60405180910390fd5b6000610567836113be565b905061057281610d22565b6001600160a01b0316336001600160a01b0316146105dc5760405162461bcd60e51b815260206004820152602160248201527f4f6e6c79206f776e65722063616e207472616e73666572206f776e65727368696044820152600760fc1b6064820152608401610553565b6000818152600c602052604081206002810180546001600160a01b0319166001600160a01b0386161790556003018054916106168361246a565b919050555061062633838361068d565b610630338261145c565b6001600160a01b0382166000818152600d60209081526040808320805460018101825590845291832090910184905551339184917f16b85f49bf01212961345d3016c9a531894accf62eb7680f2045d79185cc0ec09190a4505050565b6001600160a01b0382166106b757604051633250574960e11b815260006004820152602401610553565b60006106c4838333611521565b9050836001600160a01b0316816001600160a01b031614610712576040516364283d7b60e01b81526001600160a01b0380861660048301526024820184905282166044820152606401610553565b50505050565b6107206115f6565b61072c86600b54611623565b6040805160e08101825286815260208082018790526001600160a01b038916828401526000606083018190526080830187905260a0830186905260c08301859052600b548152600c909152919091208151819061078990826124d3565b506020820151600182019061079e90826124d3565b5060408201516002820180546001600160a01b0319166001600160a01b03909216919091179055606082015160038201556080820151600482015560a0820151600582015560c082015160068201906107f790826124d3565b5050506001600160a01b0386166000908152600d602090815260408220600b80548254600181018455928552928420909101919091558054916108398361246a565b9190505550505050505050565b600061085183610d2d565b82106108825760405163295f44f760e21b81526001600160a01b038416600482015260248101839052604401610553565b506001600160a01b03919091166000908152600660209081526040808320938352929052205490565b6108c683838360405180602001604052806000815250610da3565b505050565b600b5460609060008167ffffffffffffffff8111156108ec576108ec611f82565b60405190808252806020026020018201604052801561091f57816020015b606081526020019060019003908161090a5790505b50905060005b828110156109ec576000818152600c6020526040902060060180546109499061241a565b80601f01602080910402602001604051908101604052809291908181526020018280546109759061241a565b80156109c25780601f10610997576101008083540402835291602001916109c2565b820191906000526020600020905b8154815290600101906020018083116109a557829003601f168201915b50505050508282815181106109d9576109d9612593565b6020908102919091010152600101610925565b5092915050565b60006109fe60085490565b8210610a275760405163295f44f760e21b81526000600482015260248101839052604401610553565b60088281548110610a3a57610a3a612593565b90600052602060002001549050919050565b6001600160a01b0381166000908152600d6020526040812080546060929067ffffffffffffffff811115610a8257610a82611f82565b604051908082528060200260200182016040528015610abb57816020015b610aa8611e47565b815260200190600190039081610aa05790505b50905060005b8254811015610d1a576000838281548110610ade57610ade612593565b90600052602060002001549050600c60008281526020019081526020016000206040518060e0016040529081600082018054610b199061241a565b80601f0160208091040260200160405190810160405280929190818152602001828054610b459061241a565b8015610b925780601f10610b6757610100808354040283529160200191610b92565b820191906000526020600020905b815481529060010190602001808311610b7557829003601f168201915b50505050508152602001600182018054610bab9061241a565b80601f0160208091040260200160405190810160405280929190818152602001828054610bd79061241a565b8015610c245780601f10610bf957610100808354040283529160200191610c24565b820191906000526020600020905b815481529060010190602001808311610c0757829003601f168201915b505050918352505060028201546001600160a01b0316602082015260038201546040820152600482015460608201526005820154608082015260068201805460a090920191610c729061241a565b80601f0160208091040260200160405190810160405280929190818152602001828054610c9e9061241a565b8015610ceb5780601f10610cc057610100808354040283529160200191610ceb565b820191906000526020600020905b815481529060010190602001808311610cce57829003601f168201915b505050505081525050838381518110610d0657610d06612593565b602090810291909101015250600101610ac1565b509392505050565b600061043182611378565b60006001600160a01b038216610d59576040516322718ad960e21b815260006004820152602401610553565b506001600160a01b031660009081526003602052604090205490565b610d7d6115f6565b610d876000611688565b565b6060600180546104469061241a565b6104fd3383836116da565b610dae84848461068d565b61071284848484611779565b610dc2611e47565b6000828152600c602052604090819020815160e08101909252805482908290610dea9061241a565b80601f0160208091040260200160405190810160405280929190818152602001828054610e169061241a565b8015610e635780601f10610e3857610100808354040283529160200191610e63565b820191906000526020600020905b815481529060010190602001808311610e4657829003601f168201915b50505050508152602001600182018054610e7c9061241a565b80601f0160208091040260200160405190810160405280929190818152602001828054610ea89061241a565b8015610ef55780601f10610eca57610100808354040283529160200191610ef5565b820191906000526020600020905b815481529060010190602001808311610ed857829003601f168201915b505050918352505060028201546001600160a01b0316602082015260038201546040820152600482015460608201526005820154608082015260068201805460a090920191610f439061241a565b80601f0160208091040260200160405190810160405280929190818152602001828054610f6f9061241a565b8015610fbc5780601f10610f9157610100808354040283529160200191610fbc565b820191906000526020600020905b815481529060010190602001808311610f9f57829003601f168201915b5050505050815250509050919050565b6060610fd782611378565b506000610fef60408051602081019091526000815290565b9050600081511161100f576040518060200160405280600081525061103a565b80611019846118a2565b60405160200161102a9291906125a9565b6040516020818303038152906040525b9392505050565b600c6020526000908152604090208054819061105c9061241a565b80601f01602080910402602001604051908101604052809291908181526020018280546110889061241a565b80156110d55780601f106110aa576101008083540402835291602001916110d5565b820191906000526020600020905b8154815290600101906020018083116110b857829003601f168201915b5050505050908060010180546110ea9061241a565b80601f01602080910402602001604051908101604052809291908181526020018280546111169061241a565b80156111635780601f1061113857610100808354040283529160200191611163565b820191906000526020600020905b81548152906001019060200180831161114657829003601f168201915b505050600284015460038501546004860154600587015460068801805497986001600160a01b0390951697939650919450929161119f9061241a565b80601f01602080910402602001604051908101604052809291908181526020018280546111cb9061241a565b80156112185780601f106111ed57610100808354040283529160200191611218565b820191906000526020600020905b8154815290600101906020018083116111fb57829003601f168201915b5050505050905087565b6001600160a01b0382166000908152600d6020526040812054821061127f5760405162461bcd60e51b8152602060048201526013602482015272496e646578206f7574206f6620626f756e647360681b6044820152606401610553565b6001600160a01b0383166000908152600d602052604090208054839081106112a9576112a9612593565b9060005260206000200154905092915050565b6001600160a01b03918216600090815260056020908152604080832093909416825291909152205460ff1690565b6112f26115f6565b6001600160a01b03811661131c57604051631e4fbdf760e01b815260006004820152602401610553565b61132581611688565b50565b60006001600160e01b031982166380ac58cd60e01b148061135957506001600160e01b03198216635b5e139f60e01b145b8061043157506301ffc9a760e01b6001600160e01b0319831614610431565b6000818152600260205260408120546001600160a01b03168061043157604051637e27328960e01b815260048101849052602401610553565b6108c68383836001611935565b600060015b600b54811015611413578280519060200120600c60008381526020019081526020016000206006016040516113f891906125d8565b60405180910390200361140b5792915050565b6001016113c3565b5060405162461bcd60e51b815260206004820152601b60248201527f41737365742077697468206974656d4964206e6f7420666f756e6400000000006044820152606401610553565b6001600160a01b0382166000908152600d60205260408120905b8154811015610712578282828154811061149257611492612593565b90600052602060002001540361151957815482906114b29060019061264e565b815481106114c2576114c2612593565b90600052602060002001548282815481106114df576114df612593565b9060005260206000200181905550818054806114fd576114fd612661565b6001900381819060005260206000200160009055905550505050565b600101611476565b60008061152f858585611a3b565b90506001600160a01b03811661158c5761158784600880546000838152600960205260408120829055600182018355919091527ff3f7a9fe364faab93b216da50a3214154f22a0a2b415b23a84c8169e8b636ee30155565b6115af565b846001600160a01b0316816001600160a01b0316146115af576115af8185611b34565b6001600160a01b0385166115cb576115c684611bc5565b6115ee565b846001600160a01b0316816001600160a01b0316146115ee576115ee8585611c58565b949350505050565b600a546001600160a01b03163314610d875760405163118cdaa760e01b8152336004820152602401610553565b6001600160a01b03821661164d57604051633250574960e11b815260006004820152602401610553565b600061165b83836000611521565b90506001600160a01b038116156108c6576040516339e3563760e11b815260006004820152602401610553565b600a80546001600160a01b038381166001600160a01b0319831681179093556040519116919082907f8be0079c531659141344cd1fd0a4f28419497f9722a3daafe3b4186f6b6457e090600090a35050565b6001600160a01b03821661170c57604051630b61174360e31b81526001600160a01b0383166004820152602401610553565b6001600160a01b03838116600081815260056020908152604080832094871680845294825291829020805460ff191686151590811790915591519182527f17307eab39ab6107e8899845ad3d59bd9653f200f220920489ca2b5937696c31910160405180910390a3505050565b6001600160a01b0383163b1561071257604051630a85bd0160e11b81526001600160a01b0384169063150b7a02906117bb903390889087908790600401612677565b6020604051808303816000875af19250505080156117f6575060408051601f3d908101601f191682019092526117f3918101906126b4565b60015b61185f573d808015611824576040519150601f19603f3d011682016040523d82523d6000602084013e611829565b606091505b50805160000361185757604051633250574960e11b81526001600160a01b0385166004820152602401610553565b805181602001fd5b6001600160e01b03198116630a85bd0160e11b1461189b57604051633250574960e11b81526001600160a01b0385166004820152602401610553565b5050505050565b606060006118af83611ca8565b600101905060008167ffffffffffffffff8111156118cf576118cf611f82565b6040519080825280601f01601f1916602001820160405280156118f9576020820181803683370190505b5090508181016020015b600019016f181899199a1a9b1b9c1cb0b131b232b360811b600a86061a8153600a850494508461190357509392505050565b808061194957506001600160a01b03821615155b15611a0b57600061195984611378565b90506001600160a01b038316158015906119855750826001600160a01b0316816001600160a01b031614155b8015611998575061199681846112bc565b155b156119c15760405163a9fbf51f60e01b81526001600160a01b0384166004820152602401610553565b8115611a095783856001600160a01b0316826001600160a01b03167f8c5be1e5ebec7d5bd14f71427d1e84f3dd0314c0f7b2291e5b200ac8c7c3b92560405160405180910390a45b505b5050600090815260046020526040902080546001600160a01b0319166001600160a01b0392909216919091179055565b6000828152600260205260408120546001600160a01b0390811690831615611a6857611a68818486611d80565b6001600160a01b03811615611aa657611a85600085600080611935565b6001600160a01b038116600090815260036020526040902080546000190190555b6001600160a01b03851615611ad5576001600160a01b0385166000908152600360205260409020805460010190555b60008481526002602052604080822080546001600160a01b0319166001600160a01b0389811691821790925591518793918516917fddf252ad1be2c89b69c2b068fc378daa952ba7f163c4a11628f55a4df523b3ef91a4949350505050565b6000611b3f83610d2d565b600083815260076020526040902054909150808214611b92576001600160a01b03841660009081526006602090815260408083208584528252808320548484528184208190558352600790915290208190555b5060009182526007602090815260408084208490556001600160a01b039094168352600681528383209183525290812055565b600854600090611bd79060019061264e565b60008381526009602052604081205460088054939450909284908110611bff57611bff612593565b906000526020600020015490508060088381548110611c2057611c20612593565b60009182526020808320909101929092558281526009909152604080822084905585825281205560088054806114fd576114fd612661565b60006001611c6584610d2d565b611c6f919061264e565b6001600160a01b039093166000908152600660209081526040808320868452825280832085905593825260079052919091209190915550565b60008072184f03e93ff9f4daa797ed6e38ed64bf6a1f0160401b8310611ce75772184f03e93ff9f4daa797ed6e38ed64bf6a1f0160401b830492506040015b6d04ee2d6d415b85acef81000000008310611d13576d04ee2d6d415b85acef8100000000830492506020015b662386f26fc100008310611d3157662386f26fc10000830492506010015b6305f5e1008310611d49576305f5e100830492506008015b6127108310611d5d57612710830492506004015b60648310611d6f576064830492506002015b600a83106104315760010192915050565b611d8b838383611de4565b6108c6576001600160a01b038316611db957604051637e27328960e01b815260048101829052602401610553565b60405163177e802f60e01b81526001600160a01b038316600482015260248101829052604401610553565b60006001600160a01b038316158015906115ee5750826001600160a01b0316846001600160a01b03161480611e1e5750611e1e84846112bc565b806115ee5750506000908152600460205260409020546001600160a01b03908116911614919050565b6040518060e00160405280606081526020016060815260200160006001600160a01b03168152602001600081526020016000815260200160008152602001606081525090565b6001600160e01b03198116811461132557600080fd5b600060208284031215611eb557600080fd5b813561103a81611e8d565b60005b83811015611edb578181015183820152602001611ec3565b50506000910152565b60008151808452611efc816020860160208601611ec0565b601f01601f19169290920160200192915050565b60208152600061103a6020830184611ee4565b600060208284031215611f3557600080fd5b5035919050565b80356001600160a01b0381168114611f5357600080fd5b919050565b60008060408385031215611f6b57600080fd5b611f7483611f3c565b946020939093013593505050565b634e487b7160e01b600052604160045260246000fd5b600067ffffffffffffffff80841115611fb357611fb3611f82565b604051601f8501601f19908116603f01168101908282118183101715611fdb57611fdb611f82565b81604052809350858152868686011115611ff457600080fd5b858560208301376000602087830101525050509392505050565b600082601f83011261201f57600080fd5b61103a83833560208501611f98565b6000806040838503121561204157600080fd5b823567ffffffffffffffff81111561205857600080fd5b6120648582860161200e565b92505061207360208401611f3c565b90509250929050565b60008060006060848603121561209157600080fd5b61209a84611f3c565b92506120a860208501611f3c565b9150604084013590509250925092565b60008060008060008060c087890312156120d157600080fd5b6120da87611f3c565b9550602087013567ffffffffffffffff808211156120f757600080fd5b6121038a838b0161200e565b9650604089013591508082111561211957600080fd5b6121258a838b0161200e565b9550606089013594506080890135935060a089013591508082111561214957600080fd5b5061215689828a0161200e565b9150509295509295509295565b600060208083016020845280855180835260408601915060408160051b87010192506020870160005b828110156121ba57603f198886030184526121a8858351611ee4565b9450928501929085019060010161218c565b5092979650505050505050565b6000602082840312156121d957600080fd5b61103a82611f3c565b6000815160e084526121f760e0850182611ee4565b9050602083015184820360208601526122108282611ee4565b91505060018060a01b036040840151166040850152606083015160608501526080830151608085015260a083015160a085015260c083015184820360c086015261225a8282611ee4565b95945050505050565b600060208083016020845280855180835260408601915060408160051b87010192506020870160005b828110156121ba57603f198886030184526122a88583516121e2565b9450928501929085019060010161228c565b600080604083850312156122cd57600080fd5b6122d683611f3c565b9150602083013580151581146122eb57600080fd5b809150509250929050565b6000806000806080858703121561230c57600080fd5b61231585611f3c565b935061232360208601611f3c565b925060408501359150606085013567ffffffffffffffff81111561234657600080fd5b8501601f8101871361235757600080fd5b61236687823560208401611f98565b91505092959194509250565b60208152600061103a60208301846121e2565b60e08152600061239860e083018a611ee4565b82810360208401526123aa818a611ee4565b6001600160a01b0389166040850152606084018890526080840187905260a0840186905283810360c085015290506123e28185611ee4565b9a9950505050505050505050565b6000806040838503121561240357600080fd5b61240c83611f3c565b915061207360208401611f3c565b600181811c9082168061242e57607f821691505b60208210810361244e57634e487b7160e01b600052602260045260246000fd5b50919050565b634e487b7160e01b600052601160045260246000fd5b60006001820161247c5761247c612454565b5060010190565b601f8211156108c6576000816000526020600020601f850160051c810160208610156124ac5750805b601f850160051c820191505b818110156124cb578281556001016124b8565b505050505050565b815167ffffffffffffffff8111156124ed576124ed611f82565b612501816124fb845461241a565b84612483565b602080601f831160018114612536576000841561251e5750858301515b600019600386901b1c1916600185901b1785556124cb565b600085815260208120601f198616915b8281101561256557888601518255948401946001909101908401612546565b50858210156125835787850151600019600388901b60f8161c191681555b5050505050600190811b01905550565b634e487b7160e01b600052603260045260246000fd5b600083516125bb818460208801611ec0565b8351908301906125cf818360208801611ec0565b01949350505050565b60008083546125e68161241a565b600182811680156125fe576001811461261357612642565b60ff1984168752821515830287019450612642565b8760005260208060002060005b858110156126395781548a820152908401908201612620565b50505082870194505b50929695505050505050565b8181038181111561043157610431612454565b634e487b7160e01b600052603160045260246000fd5b6001600160a01b03858116825284166020820152604081018390526080606082018190526000906126aa90830184611ee4565b9695505050505050565b6000602082840312156126c657600080fd5b815161103a81611e8d56fea2646970667358221220425ad470370e7bfabc137b073ec77692c3c3bda4f7146eab9bbd14cd4b6f4ad264736f6c63430008170033",
  "linkReferences": {},
  "deployedLinkReferences": {}
}