{
  "_format": "hh-sol-artifact-1",
  "contractName": "DJKNAssetToken",
  "sourceName": "contracts/Asset.sol",
  "abi": [
    {
      "inputs": [
        {
          "internalType": "address",
          "name": "initialOwner",
          "type": "address"
        }
      ],
      "stateMutability": "nonpayable",
      "type": "constructor"
    },
    {
      "inputs": [],
      "name": "ERC721EnumerableForbiddenBatchMint",
      "type": "error"
    },
    {
      "inputs": [
        {
          "internalType": "address",
          "name": "sender",
          "type": "address"
        },
        {
          "internalType": "uint256",
          "name": "tokenId",
          "type": "uint256"
        },
        {
          "internalType": "address",
          "name": "owner",
          "type": "address"
        }
      ],
      "name": "ERC721IncorrectOwner",
      "type": "error"
    },
    {
      "inputs": [
        {
          "internalType": "address",
          "name": "operator",
          "type": "address"
        },
        {
          "internalType": "uint256",
          "name": "tokenId",
          "type": "uint256"
        }
      ],
      "name": "ERC721InsufficientApproval",
      "type": "error"
    },
    {
      "inputs": [
        {
          "internalType": "address",
          "name": "approver",
          "type": "address"
        }
      ],
      "name": "ERC721InvalidApprover",
      "type": "error"
    },
    {
      "inputs": [
        {
          "internalType": "address",
          "name": "operator",
          "type": "address"
        }
      ],
      "name": "ERC721InvalidOperator",
      "type": "error"
    },
    {
      "inputs": [
        {
          "internalType": "address",
          "name": "owner",
          "type": "address"
        }
      ],
      "name": "ERC721InvalidOwner",
      "type": "error"
    },
    {
      "inputs": [
        {
          "internalType": "address",
          "name": "receiver",
          "type": "address"
        }
      ],
      "name": "ERC721InvalidReceiver",
      "type": "error"
    },
    {
      "inputs": [
        {
          "internalType": "address",
          "name": "sender",
          "type": "address"
        }
      ],
      "name": "ERC721InvalidSender",
      "type": "error"
    },
    {
      "inputs": [
        {
          "internalType": "uint256",
          "name": "tokenId",
          "type": "uint256"
        }
      ],
      "name": "ERC721NonexistentToken",
      "type": "error"
    },
    {
      "inputs": [
        {
          "internalType": "address",
          "name": "owner",
          "type": "address"
        },
        {
          "internalType": "uint256",
          "name": "index",
          "type": "uint256"
        }
      ],
      "name": "ERC721OutOfBoundsIndex",
      "type": "error"
    },
    {
      "inputs": [
        {
          "internalType": "address",
          "name": "owner",
          "type": "address"
        }
      ],
      "name": "OwnableInvalidOwner",
      "type": "error"
    },
    {
      "inputs": [
        {
          "internalType": "address",
          "name": "account",
          "type": "address"
        }
      ],
      "name": "OwnableUnauthorizedAccount",
      "type": "error"
    },
    {
      "anonymous": false,
      "inputs": [
        {
          "indexed": true,
          "internalType": "address",
          "name": "owner",
          "type": "address"
        },
        {
          "indexed": true,
          "internalType": "address",
          "name": "approved",
          "type": "address"
        },
        {
          "indexed": true,
          "internalType": "uint256",
          "name": "tokenId",
          "type": "uint256"
        }
      ],
      "name": "Approval",
      "type": "event"
    },
    {
      "anonymous": false,
      "inputs": [
        {
          "indexed": true,
          "internalType": "address",
          "name": "owner",
          "type": "address"
        },
        {
          "indexed": true,
          "internalType": "address",
          "name": "operator",
          "type": "address"
        },
        {
          "indexed": false,
          "internalType": "bool",
          "name": "approved",
          "type": "bool"
        }
      ],
      "name": "ApprovalForAll",
      "type": "event"
    },
    {
      "anonymous": false,
      "inputs": [
        {
          "indexed": true,
          "internalType": "address",
          "name": "previousOwner",
          "type": "address"
        },
        {
          "indexed": true,
          "internalType": "address",
          "name": "newOwner",
          "type": "address"
        }
      ],
      "name": "OwnershipTransferred",
      "type": "event"
    },
    {
      "anonymous": false,
      "inputs": [
        {
          "indexed": true,
          "internalType": "uint256",
          "name": "tokenId",
          "type": "uint256"
        },
        {
          "indexed": true,
          "internalType": "address",
          "name": "previousOwner",
          "type": "address"
        },
        {
          "indexed": true,
          "internalType": "address",
          "name": "newOwner",
          "type": "address"
        }
      ],
      "name": "OwnershipTransferred",
      "type": "event"
    },
    {
      "anonymous": false,
      "inputs": [
        {
          "indexed": true,
          "internalType": "address",
          "name": "from",
          "type": "address"
        },
        {
          "indexed": true,
          "internalType": "address",
          "name": "to",
          "type": "address"
        },
        {
          "indexed": true,
          "internalType": "uint256",
          "name": "tokenId",
          "type": "uint256"
        }
      ],
      "name": "Transfer",
      "type": "event"
    },
    {
      "inputs": [
        {
          "internalType": "address",
          "name": "to",
          "type": "address"
        },
        {
          "internalType": "uint256",
          "name": "tokenId",
          "type": "uint256"
        }
      ],
      "name": "approve",
      "outputs": [],
      "stateMutability": "nonpayable",
      "type": "function"
    },
    {
      "inputs": [
        {
          "internalType": "uint256",
          "name": "",
          "type": "uint256"
        }
      ],
      "name": "assets",
      "outputs": [
        {
          "internalType": "string",
          "name": "itemName",
          "type": "string"
        },
        {
          "internalType": "string",
          "name": "location",
          "type": "string"
        },
        {
          "internalType": "address",
          "name": "owner",
          "type": "address"
        },
        {
          "internalType": "uint256",
          "name": "transferCount",
          "type": "uint256"
        },
        {
          "internalType": "uint256",
          "name": "acquisitionDate",
          "type": "uint256"
        },
        {
          "internalType": "uint256",
          "name": "estimatedValue",
          "type": "uint256"
        },
        {
          "internalType": "string",
          "name": "itemId",
          "type": "string"
        }
      ],
      "stateMutability": "view",
      "type": "function"
    },
    {
      "inputs": [
        {
          "internalType": "address",
          "name": "owner",
          "type": "address"
        }
      ],
      "name": "balanceOf",
      "outputs": [
        {
          "internalType": "uint256",
          "name": "",
          "type": "uint256"
        }
      ],
      "stateMutability": "view",
      "type": "function"
    },
    {
      "inputs": [],
      "name": "getAllItems",
      "outputs": [
        {
          "internalType": "string[]",
          "name": "",
          "type": "string[]"
        }
      ],
      "stateMutability": "view",
      "type": "function"
    },
    {
      "inputs": [
        {
          "internalType": "uint256",
          "name": "tokenId",
          "type": "uint256"
        }
      ],
      "name": "getApproved",
      "outputs": [
        {
          "internalType": "address",
          "name": "",
          "type": "address"
        }
      ],
      "stateMutability": "view",
      "type": "function"
    },
    {
      "inputs": [
        {
          "internalType": "address",
          "name": "owner",
          "type": "address"
        }
      ],
      "name": "getOwnedAsset",
      "outputs": [
        {
          "internalType": "string[]",
          "name": "",
          "type": "string[]"
        }
      ],
      "stateMutability": "view",
      "type": "function"
    },
    {
      "inputs": [
        {
          "internalType": "address",
          "name": "owner",
          "type": "address"
        },
        {
          "internalType": "uint256",
          "name": "index",
          "type": "uint256"
        }
      ],
      "name": "getOwnedAssetId",
      "outputs": [
        {
          "internalType": "uint256",
          "name": "",
          "type": "uint256"
        }
      ],
      "stateMutability": "view",
      "type": "function"
    },
    {
      "inputs": [
        {
          "internalType": "address",
          "name": "owner",
          "type": "address"
        }
      ],
      "name": "getOwnedAssetsCount",
      "outputs": [
        {
          "internalType": "uint256",
          "name": "",
          "type": "uint256"
        }
      ],
      "stateMutability": "view",
      "type": "function"
    },
    {
      "inputs": [
        {
          "internalType": "uint256",
          "name": "tokenId",
          "type": "uint256"
        }
      ],
      "name": "getTokenDetails",
      "outputs": [
        {
          "components": [
            {
              "internalType": "string",
              "name": "itemName",
              "type": "string"
            },
            {
              "internalType": "string",
              "name": "location",
              "type": "string"
            },
            {
              "internalType": "address",
              "name": "owner",
              "type": "address"
            },
            {
              "internalType": "uint256",
              "name": "transferCount",
              "type": "uint256"
            },
            {
              "internalType": "uint256",
              "name": "acquisitionDate",
              "type": "uint256"
            },
            {
              "internalType": "uint256",
              "name": "estimatedValue",
              "type": "uint256"
            },
            {
              "internalType": "string",
              "name": "itemId",
              "type": "string"
            }
          ],
          "internalType": "struct DJKNAssetToken.Asset",
          "name": "",
          "type": "tuple"
        }
      ],
      "stateMutability": "view",
      "type": "function"
    },
    {
      "inputs": [
        {
          "internalType": "address",
          "name": "owner",
          "type": "address"
        },
        {
          "internalType": "address",
          "name": "operator",
          "type": "address"
        }
      ],
      "name": "isApprovedForAll",
      "outputs": [
        {
          "internalType": "bool",
          "name": "",
          "type": "bool"
        }
      ],
      "stateMutability": "view",
      "type": "function"
    },
    {
      "inputs": [
        {
          "internalType": "address",
          "name": "to",
          "type": "address"
        },
        {
          "internalType": "string",
          "name": "itemName",
          "type": "string"
        },
        {
          "internalType": "string",
          "name": "location",
          "type": "string"
        },
        {
          "internalType": "uint256",
          "name": "acquisitionDate",
          "type": "uint256"
        },
        {
          "internalType": "uint256",
          "name": "estimatedValue",
          "type": "uint256"
        },
        {
          "internalType": "string",
          "name": "itemId",
          "type": "string"
        }
      ],
      "name": "mint",
      "outputs": [],
      "stateMutability": "nonpayable",
      "type": "function"
    },
    {
      "inputs": [],
      "name": "name",
      "outputs": [
        {
          "internalType": "string",
          "name": "",
          "type": "string"
        }
      ],
      "stateMutability": "view",
      "type": "function"
    },
    {
      "inputs": [],
      "name": "owner",
      "outputs": [
        {
          "internalType": "address",
          "name": "",
          "type": "address"
        }
      ],
      "stateMutability": "view",
      "type": "function"
    },
    {
      "inputs": [
        {
          "internalType": "uint256",
          "name": "tokenId",
          "type": "uint256"
        }
      ],
      "name": "ownerOf",
      "outputs": [
        {
          "internalType": "address",
          "name": "",
          "type": "address"
        }
      ],
      "stateMutability": "view",
      "type": "function"
    },
    {
      "inputs": [],
      "name": "renounceOwnership",
      "outputs": [],
      "stateMutability": "nonpayable",
      "type": "function"
    },
    {
      "inputs": [
        {
          "internalType": "address",
          "name": "from",
          "type": "address"
        },
        {
          "internalType": "address",
          "name": "to",
          "type": "address"
        },
        {
          "internalType": "uint256",
          "name": "tokenId",
          "type": "uint256"
        }
      ],
      "name": "safeTransferFrom",
      "outputs": [],
      "stateMutability": "nonpayable",
      "type": "function"
    },
    {
      "inputs": [
        {
          "internalType": "address",
          "name": "from",
          "type": "address"
        },
        {
          "internalType": "address",
          "name": "to",
          "type": "address"
        },
        {
          "internalType": "uint256",
          "name": "tokenId",
          "type": "uint256"
        },
        {
          "internalType": "bytes",
          "name": "data",
          "type": "bytes"
        }
      ],
      "name": "safeTransferFrom",
      "outputs": [],
      "stateMutability": "nonpayable",
      "type": "function"
    },
    {
      "inputs": [
        {
          "internalType": "address",
          "name": "operator",
          "type": "address"
        },
        {
          "internalType": "bool",
          "name": "approved",
          "type": "bool"
        }
      ],
      "name": "setApprovalForAll",
      "outputs": [],
      "stateMutability": "nonpayable",
      "type": "function"
    },
    {
      "inputs": [
        {
          "internalType": "bytes4",
          "name": "interfaceId",
          "type": "bytes4"
        }
      ],
      "name": "supportsInterface",
      "outputs": [
        {
          "internalType": "bool",
          "name": "",
          "type": "bool"
        }
      ],
      "stateMutability": "view",
      "type": "function"
    },
    {
      "inputs": [],
      "name": "symbol",
      "outputs": [
        {
          "internalType": "string",
          "name": "",
          "type": "string"
        }
      ],
      "stateMutability": "view",
      "type": "function"
    },
    {
      "inputs": [
        {
          "internalType": "uint256",
          "name": "index",
          "type": "uint256"
        }
      ],
      "name": "tokenByIndex",
      "outputs": [
        {
          "internalType": "uint256",
          "name": "",
          "type": "uint256"
        }
      ],
      "stateMutability": "view",
      "type": "function"
    },
    {
      "inputs": [
        {
          "internalType": "address",
          "name": "owner",
          "type": "address"
        },
        {
          "internalType": "uint256",
          "name": "index",
          "type": "uint256"
        }
      ],
      "name": "tokenOfOwnerByIndex",
      "outputs": [
        {
          "internalType": "uint256",
          "name": "",
          "type": "uint256"
        }
      ],
      "stateMutability": "view",
      "type": "function"
    },
    {
      "inputs": [
        {
          "internalType": "uint256",
          "name": "tokenId",
          "type": "uint256"
        }
      ],
      "name": "tokenURI",
      "outputs": [
        {
          "internalType": "string",
          "name": "",
          "type": "string"
        }
      ],
      "stateMutability": "view",
      "type": "function"
    },
    {
      "inputs": [],
      "name": "totalSupply",
      "outputs": [
        {
          "internalType": "uint256",
          "name": "",
          "type": "uint256"
        }
      ],
      "stateMutability": "view",
      "type": "function"
    },
    {
      "inputs": [
        {
          "internalType": "string",
          "name": "itemId",
          "type": "string"
        },
        {
          "internalType": "address",
          "name": "newOwner",
          "type": "address"
        }
      ],
      "name": "transferAssetOwnership",
      "outputs": [],
      "stateMutability": "nonpayable",
      "type": "function"
    },
    {
      "inputs": [
        {
          "internalType": "address",
          "name": "from",
          "type": "address"
        },
        {
          "internalType": "address",
          "name": "to",
          "type": "address"
        },
        {
          "internalType": "uint256",
          "name": "tokenId",
          "type": "uint256"
        }
      ],
      "name": "transferFrom",
      "outputs": [],
      "stateMutability": "nonpayable",
      "type": "function"
    },
    {
      "inputs": [
        {
          "internalType": "address",
          "name": "newOwner",
          "type": "address"
        }
      ],
      "name": "transferOwnership",
      "outputs": [],
      "stateMutability": "nonpayable",
      "type": "function"
    }
  ],
  "bytecode": "0x60806040526001600b553480156200001657600080fd5b506040516200281b3803806200281b833981016040819052620000399162000134565b806040518060400160405280600e81526020016d222525a720b9b9b2ba2a37b5b2b760911b8152506040518060400160405280600381526020016211d05560ea1b81525081600090816200008e91906200020d565b5060016200009d82826200020d565b5050506001600160a01b038116620000cf57604051631e4fbdf760e01b81526000600482015260240160405180910390fd5b620000da81620000e2565b5050620002d9565b600a80546001600160a01b038381166001600160a01b0319831681179093556040519116919082907f8be0079c531659141344cd1fd0a4f28419497f9722a3daafe3b4186f6b6457e090600090a35050565b6000602082840312156200014757600080fd5b81516001600160a01b03811681146200015f57600080fd5b9392505050565b634e487b7160e01b600052604160045260246000fd5b600181811c908216806200019157607f821691505b602082108103620001b257634e487b7160e01b600052602260045260246000fd5b50919050565b601f82111562000208576000816000526020600020601f850160051c81016020861015620001e35750805b601f850160051c820191505b818110156200020457828155600101620001ef565b5050505b505050565b81516001600160401b0381111562000229576200022962000166565b62000241816200023a84546200017c565b84620001b8565b602080601f831160018114620002795760008415620002605750858301515b600019600386901b1c1916600185901b17855562000204565b600085815260208120601f198616915b82811015620002aa5788860151825594840194600190910190840162000289565b5085821015620002c95787850151600019600388901b60f8161c191681555b5050505050600190811b01905550565b61253280620002e96000396000f3fe608060405234801561001057600080fd5b50600436106101a95760003560e01c80636352211e116100f9578063b88d4fde11610097578063cf35bdd011610071578063cf35bdd0146103a0578063e3080094146103c6578063e985e9c5146103d9578063f2fde38b146103ec57600080fd5b8063b88d4fde1461035a578063c1e037281461036d578063c87b56dd1461038d57600080fd5b80637d22b8f0116100d35780637d22b8f0146103055780638da5cb5b1461032e57806395d89b411461033f578063a22cb4651461034757600080fd5b80636352211e146102d757806370a08231146102ea578063715018a6146102fd57600080fd5b806323b872dd116101665780632f745c59116101405780632f745c591461029657806342842e0e146102a95780634ba1d6aa146102bc5780634f6ccce7146102c457600080fd5b806323b872dd14610250578063263f9aaa1461026357806326debcf31461028357600080fd5b806301ffc9a7146101ae57806306fdde03146101d6578063081812fc146101eb578063095ea7b31461021657806318160ddd1461022b5780632203f8f11461023d575b600080fd5b6101c16101bc366004611d27565b6103ff565b60405190151581526020015b60405180910390f35b6101de61042a565b6040516101cd9190611d94565b6101fe6101f9366004611da7565b6104bc565b6040516001600160a01b0390911681526020016101cd565b610229610224366004611ddc565b6104e5565b005b6008545b6040519081526020016101cd565b61022961024b366004611eb2565b6104f4565b61022961025e366004611f00565b610680565b610276610271366004611f3c565b61070b565b6040516101cd9190611f57565b610229610291366004611fbb565b610877565b61022f6102a4366004611ddc565b6109a5565b6102296102b7366004611f00565b610a0a565b610276610a2a565b61022f6102d2366004611da7565b610b52565b6101fe6102e5366004611da7565b610bab565b61022f6102f8366004611f3c565b610bb6565b610229610bfe565b61022f610313366004611f3c565b6001600160a01b03166000908152600d602052604090205490565b600a546001600160a01b03166101fe565b6101de610c12565b610229610355366004612066565b610c21565b6102296103683660046120a2565b610c2c565b61038061037b366004611da7565b610c43565b6040516101cd919061211e565b6101de61039b366004611da7565b610e96565b6103b36103ae366004611da7565b610f0b565b6040516101cd97969594939291906121b0565b61022f6103d4366004611ddc565b6110ec565b6101c16103e736600461221b565b611186565b6102296103fa366004611f3c565b6111b4565b60006001600160e01b0319821663780e9d6360e01b14806104245750610424826111f2565b92915050565b60606000805461043990612245565b80601f016020809104026020016040519081016040528092919081815260200182805461046590612245565b80156104b25780601f10610487576101008083540402835291602001916104b2565b820191906000526020600020905b81548152906001019060200180831161049557829003601f168201915b5050505050905090565b60006104c782611242565b506000828152600460205260409020546001600160a01b0316610424565b6104f082823361127b565b5050565b6001600160a01b03811661054f5760405162461bcd60e51b815260206004820152601960248201527f496e76616c6964206e6577206f776e657220616464726573730000000000000060448201526064015b60405180910390fd5b600061055a83611288565b905061056581610bab565b6001600160a01b0316336001600160a01b0316146105cf5760405162461bcd60e51b815260206004820152602160248201527f4f6e6c79206f776e65722063616e207472616e73666572206f776e65727368696044820152600760fc1b6064820152608401610546565b6000818152600c602052604081206002810180546001600160a01b0319166001600160a01b03861617905560030180549161060983612295565b9190505550610619338383610680565b6106233382611326565b6001600160a01b0382166000818152600d60209081526040808320805460018101825590845291832090910184905551339184917f16b85f49bf01212961345d3016c9a531894accf62eb7680f2045d79185cc0ec09190a4505050565b6001600160a01b0382166106aa57604051633250574960e11b815260006004820152602401610546565b60006106b78383336113eb565b9050836001600160a01b0316816001600160a01b031614610705576040516364283d7b60e01b81526001600160a01b0380861660048301526024820184905282166044820152606401610546565b50505050565b6001600160a01b0381166000908152600d6020526040812080546060929067ffffffffffffffff81111561074157610741611e06565b60405190808252806020026020018201604052801561077457816020015b606081526020019060019003908161075f5790505b50905060005b825481101561086f576000838281548110610797576107976122ae565b906000526020600020015490506000600c600083815260200190815260200160002090508060060180546107ca90612245565b80601f01602080910402602001604051908101604052809291908181526020018280546107f690612245565b80156108435780601f1061081857610100808354040283529160200191610843565b820191906000526020600020905b81548152906001019060200180831161082657829003601f168201915b505050505084848151811061085a5761085a6122ae565b6020908102919091010152505060010161077a565b509392505050565b61087f6114c0565b61088b86600b546114ed565b6040805160e08101825286815260208082018790526001600160a01b038916828401526000606083018190526080830187905260a0830186905260c08301859052600b548152600c90915291909120815181906108e89082612314565b50602082015160018201906108fd9082612314565b5060408201516002820180546001600160a01b0319166001600160a01b03909216919091179055606082015160038201556080820151600482015560a0820151600582015560c082015160068201906109569082612314565b5050506001600160a01b0386166000908152600d602090815260408220600b805482546001810184559285529284209091019190915580549161099883612295565b9190505550505050505050565b60006109b083610bb6565b82106109e15760405163295f44f760e21b81526001600160a01b038416600482015260248101839052604401610546565b506001600160a01b03919091166000908152600660209081526040808320938352929052205490565b610a2583838360405180602001604052806000815250610c2c565b505050565b600b5460609060008167ffffffffffffffff811115610a4b57610a4b611e06565b604051908082528060200260200182016040528015610a7e57816020015b6060815260200190600190039081610a695790505b50905060005b82811015610b4b576000818152600c602052604090206006018054610aa890612245565b80601f0160208091040260200160405190810160405280929190818152602001828054610ad490612245565b8015610b215780601f10610af657610100808354040283529160200191610b21565b820191906000526020600020905b815481529060010190602001808311610b0457829003601f168201915b5050505050828281518110610b3857610b386122ae565b6020908102919091010152600101610a84565b5092915050565b6000610b5d60085490565b8210610b865760405163295f44f760e21b81526000600482015260248101839052604401610546565b60088281548110610b9957610b996122ae565b90600052602060002001549050919050565b600061042482611242565b60006001600160a01b038216610be2576040516322718ad960e21b815260006004820152602401610546565b506001600160a01b031660009081526003602052604090205490565b610c066114c0565b610c106000611552565b565b60606001805461043990612245565b6104f03383836115a4565b610c37848484610680565b61070584848484611643565b610c8c6040518060e00160405280606081526020016060815260200160006001600160a01b03168152602001600081526020016000815260200160008152602001606081525090565b6000828152600c602052604090819020815160e08101909252805482908290610cb490612245565b80601f0160208091040260200160405190810160405280929190818152602001828054610ce090612245565b8015610d2d5780601f10610d0257610100808354040283529160200191610d2d565b820191906000526020600020905b815481529060010190602001808311610d1057829003601f168201915b50505050508152602001600182018054610d4690612245565b80601f0160208091040260200160405190810160405280929190818152602001828054610d7290612245565b8015610dbf5780601f10610d9457610100808354040283529160200191610dbf565b820191906000526020600020905b815481529060010190602001808311610da257829003601f168201915b505050918352505060028201546001600160a01b0316602082015260038201546040820152600482015460608201526005820154608082015260068201805460a090920191610e0d90612245565b80601f0160208091040260200160405190810160405280929190818152602001828054610e3990612245565b8015610e865780601f10610e5b57610100808354040283529160200191610e86565b820191906000526020600020905b815481529060010190602001808311610e6957829003601f168201915b5050505050815250509050919050565b6060610ea182611242565b506000610eb960408051602081019091526000815290565b90506000815111610ed95760405180602001604052806000815250610f04565b80610ee38461176c565b604051602001610ef49291906123d4565b6040516020818303038152906040525b9392505050565b600c60205260009081526040902080548190610f2690612245565b80601f0160208091040260200160405190810160405280929190818152602001828054610f5290612245565b8015610f9f5780601f10610f7457610100808354040283529160200191610f9f565b820191906000526020600020905b815481529060010190602001808311610f8257829003601f168201915b505050505090806001018054610fb490612245565b80601f0160208091040260200160405190810160405280929190818152602001828054610fe090612245565b801561102d5780601f106110025761010080835404028352916020019161102d565b820191906000526020600020905b81548152906001019060200180831161101057829003601f168201915b505050600284015460038501546004860154600587015460068801805497986001600160a01b0390951697939650919450929161106990612245565b80601f016020809104026020016040519081016040528092919081815260200182805461109590612245565b80156110e25780601f106110b7576101008083540402835291602001916110e2565b820191906000526020600020905b8154815290600101906020018083116110c557829003601f168201915b5050505050905087565b6001600160a01b0382166000908152600d602052604081205482106111495760405162461bcd60e51b8152602060048201526013602482015272496e646578206f7574206f6620626f756e647360681b6044820152606401610546565b6001600160a01b0383166000908152600d60205260409020805483908110611173576111736122ae565b9060005260206000200154905092915050565b6001600160a01b03918216600090815260056020908152604080832093909416825291909152205460ff1690565b6111bc6114c0565b6001600160a01b0381166111e657604051631e4fbdf760e01b815260006004820152602401610546565b6111ef81611552565b50565b60006001600160e01b031982166380ac58cd60e01b148061122357506001600160e01b03198216635b5e139f60e01b145b8061042457506301ffc9a760e01b6001600160e01b0319831614610424565b6000818152600260205260408120546001600160a01b03168061042457604051637e27328960e01b815260048101849052602401610546565b610a2583838360016117ff565b600060015b600b548110156112dd578280519060200120600c60008381526020019081526020016000206006016040516112c29190612403565b6040518091039020036112d55792915050565b60010161128d565b5060405162461bcd60e51b815260206004820152601b60248201527f41737365742077697468206974656d4964206e6f7420666f756e6400000000006044820152606401610546565b6001600160a01b0382166000908152600d60205260408120905b8154811015610705578282828154811061135c5761135c6122ae565b9060005260206000200154036113e3578154829061137c90600190612479565b8154811061138c5761138c6122ae565b90600052602060002001548282815481106113a9576113a96122ae565b9060005260206000200181905550818054806113c7576113c761248c565b6001900381819060005260206000200160009055905550505050565b600101611340565b6000806113f9858585611905565b90506001600160a01b0381166114565761145184600880546000838152600960205260408120829055600182018355919091527ff3f7a9fe364faab93b216da50a3214154f22a0a2b415b23a84c8169e8b636ee30155565b611479565b846001600160a01b0316816001600160a01b0316146114795761147981856119fe565b6001600160a01b0385166114955761149084611a8f565b6114b8565b846001600160a01b0316816001600160a01b0316146114b8576114b88585611b22565b949350505050565b600a546001600160a01b03163314610c105760405163118cdaa760e01b8152336004820152602401610546565b6001600160a01b03821661151757604051633250574960e11b815260006004820152602401610546565b6000611525838360006113eb565b90506001600160a01b03811615610a25576040516339e3563760e11b815260006004820152602401610546565b600a80546001600160a01b038381166001600160a01b0319831681179093556040519116919082907f8be0079c531659141344cd1fd0a4f28419497f9722a3daafe3b4186f6b6457e090600090a35050565b6001600160a01b0382166115d657604051630b61174360e31b81526001600160a01b0383166004820152602401610546565b6001600160a01b03838116600081815260056020908152604080832094871680845294825291829020805460ff191686151590811790915591519182527f17307eab39ab6107e8899845ad3d59bd9653f200f220920489ca2b5937696c31910160405180910390a3505050565b6001600160a01b0383163b1561070557604051630a85bd0160e11b81526001600160a01b0384169063150b7a02906116859033908890879087906004016124a2565b6020604051808303816000875af19250505080156116c0575060408051601f3d908101601f191682019092526116bd918101906124df565b60015b611729573d8080156116ee576040519150601f19603f3d011682016040523d82523d6000602084013e6116f3565b606091505b50805160000361172157604051633250574960e11b81526001600160a01b0385166004820152602401610546565b805181602001fd5b6001600160e01b03198116630a85bd0160e11b1461176557604051633250574960e11b81526001600160a01b0385166004820152602401610546565b5050505050565b6060600061177983611b72565b600101905060008167ffffffffffffffff81111561179957611799611e06565b6040519080825280601f01601f1916602001820160405280156117c3576020820181803683370190505b5090508181016020015b600019016f181899199a1a9b1b9c1cb0b131b232b360811b600a86061a8153600a85049450846117cd57509392505050565b808061181357506001600160a01b03821615155b156118d557600061182384611242565b90506001600160a01b0383161580159061184f5750826001600160a01b0316816001600160a01b031614155b801561186257506118608184611186565b155b1561188b5760405163a9fbf51f60e01b81526001600160a01b0384166004820152602401610546565b81156118d35783856001600160a01b0316826001600160a01b03167f8c5be1e5ebec7d5bd14f71427d1e84f3dd0314c0f7b2291e5b200ac8c7c3b92560405160405180910390a45b505b5050600090815260046020526040902080546001600160a01b0319166001600160a01b0392909216919091179055565b6000828152600260205260408120546001600160a01b039081169083161561193257611932818486611c4a565b6001600160a01b038116156119705761194f6000856000806117ff565b6001600160a01b038116600090815260036020526040902080546000190190555b6001600160a01b0385161561199f576001600160a01b0385166000908152600360205260409020805460010190555b60008481526002602052604080822080546001600160a01b0319166001600160a01b0389811691821790925591518793918516917fddf252ad1be2c89b69c2b068fc378daa952ba7f163c4a11628f55a4df523b3ef91a4949350505050565b6000611a0983610bb6565b600083815260076020526040902054909150808214611a5c576001600160a01b03841660009081526006602090815260408083208584528252808320548484528184208190558352600790915290208190555b5060009182526007602090815260408084208490556001600160a01b039094168352600681528383209183525290812055565b600854600090611aa190600190612479565b60008381526009602052604081205460088054939450909284908110611ac957611ac96122ae565b906000526020600020015490508060088381548110611aea57611aea6122ae565b60009182526020808320909101929092558281526009909152604080822084905585825281205560088054806113c7576113c761248c565b60006001611b2f84610bb6565b611b399190612479565b6001600160a01b039093166000908152600660209081526040808320868452825280832085905593825260079052919091209190915550565b60008072184f03e93ff9f4daa797ed6e38ed64bf6a1f0160401b8310611bb15772184f03e93ff9f4daa797ed6e38ed64bf6a1f0160401b830492506040015b6d04ee2d6d415b85acef81000000008310611bdd576d04ee2d6d415b85acef8100000000830492506020015b662386f26fc100008310611bfb57662386f26fc10000830492506010015b6305f5e1008310611c13576305f5e100830492506008015b6127108310611c2757612710830492506004015b60648310611c39576064830492506002015b600a83106104245760010192915050565b611c55838383611cae565b610a25576001600160a01b038316611c8357604051637e27328960e01b815260048101829052602401610546565b60405163177e802f60e01b81526001600160a01b038316600482015260248101829052604401610546565b60006001600160a01b038316158015906114b85750826001600160a01b0316846001600160a01b03161480611ce85750611ce88484611186565b806114b85750506000908152600460205260409020546001600160a01b03908116911614919050565b6001600160e01b0319811681146111ef57600080fd5b600060208284031215611d3957600080fd5b8135610f0481611d11565b60005b83811015611d5f578181015183820152602001611d47565b50506000910152565b60008151808452611d80816020860160208601611d44565b601f01601f19169290920160200192915050565b602081526000610f046020830184611d68565b600060208284031215611db957600080fd5b5035919050565b80356001600160a01b0381168114611dd757600080fd5b919050565b60008060408385031215611def57600080fd5b611df883611dc0565b946020939093013593505050565b634e487b7160e01b600052604160045260246000fd5b600067ffffffffffffffff80841115611e3757611e37611e06565b604051601f8501601f19908116603f01168101908282118183101715611e5f57611e5f611e06565b81604052809350858152868686011115611e7857600080fd5b858560208301376000602087830101525050509392505050565b600082601f830112611ea357600080fd5b610f0483833560208501611e1c565b60008060408385031215611ec557600080fd5b823567ffffffffffffffff811115611edc57600080fd5b611ee885828601611e92565b925050611ef760208401611dc0565b90509250929050565b600080600060608486031215611f1557600080fd5b611f1e84611dc0565b9250611f2c60208501611dc0565b9150604084013590509250925092565b600060208284031215611f4e57600080fd5b610f0482611dc0565b600060208083016020845280855180835260408601915060408160051b87010192506020870160005b82811015611fae57603f19888603018452611f9c858351611d68565b94509285019290850190600101611f80565b5092979650505050505050565b60008060008060008060c08789031215611fd457600080fd5b611fdd87611dc0565b9550602087013567ffffffffffffffff80821115611ffa57600080fd5b6120068a838b01611e92565b9650604089013591508082111561201c57600080fd5b6120288a838b01611e92565b9550606089013594506080890135935060a089013591508082111561204c57600080fd5b5061205989828a01611e92565b9150509295509295509295565b6000806040838503121561207957600080fd5b61208283611dc0565b91506020830135801515811461209757600080fd5b809150509250929050565b600080600080608085870312156120b857600080fd5b6120c185611dc0565b93506120cf60208601611dc0565b925060408501359150606085013567ffffffffffffffff8111156120f257600080fd5b8501601f8101871361210357600080fd5b61211287823560208401611e1c565b91505092959194509250565b602081526000825160e0602084015261213b610100840182611d68565b90506020840151601f19808584030160408601526121598383611d68565b925060018060a01b03604087015116606086015260608601516080860152608086015160a086015260a086015160c086015260c08601519150808584030160e0860152506121a78282611d68565b95945050505050565b60e0815260006121c360e083018a611d68565b82810360208401526121d5818a611d68565b6001600160a01b0389166040850152606084018890526080840187905260a0840186905283810360c0850152905061220d8185611d68565b9a9950505050505050505050565b6000806040838503121561222e57600080fd5b61223783611dc0565b9150611ef760208401611dc0565b600181811c9082168061225957607f821691505b60208210810361227957634e487b7160e01b600052602260045260246000fd5b50919050565b634e487b7160e01b600052601160045260246000fd5b6000600182016122a7576122a761227f565b5060010190565b634e487b7160e01b600052603260045260246000fd5b601f821115610a25576000816000526020600020601f850160051c810160208610156122ed5750805b601f850160051c820191505b8181101561230c578281556001016122f9565b505050505050565b815167ffffffffffffffff81111561232e5761232e611e06565b6123428161233c8454612245565b846122c4565b602080601f831160018114612377576000841561235f5750858301515b600019600386901b1c1916600185901b17855561230c565b600085815260208120601f198616915b828110156123a657888601518255948401946001909101908401612387565b50858210156123c45787850151600019600388901b60f8161c191681555b5050505050600190811b01905550565b600083516123e6818460208801611d44565b8351908301906123fa818360208801611d44565b01949350505050565b600080835461241181612245565b60018281168015612429576001811461243e5761246d565b60ff198416875282151583028701945061246d565b8760005260208060002060005b858110156124645781548a82015290840190820161244b565b50505082870194505b50929695505050505050565b818103818111156104245761042461227f565b634e487b7160e01b600052603160045260246000fd5b6001600160a01b03858116825284166020820152604081018390526080606082018190526000906124d590830184611d68565b9695505050505050565b6000602082840312156124f157600080fd5b8151610f0481611d1156fea264697066735822122036d156e926231461501cccf40570a2493391d478eecfb093cb4baa9cf8f0bd6264736f6c63430008170033",
  "linkReferences": {},
  "deployedLinkReferences": {}
}